S010000070726F6A656374322E73726563EB
S11300000C94E6000C9403010C9403010C9403017A
S11300100C9403010C9443010C9403010C9403010C
S11300200C9403010C9403010C9403010C9403013C
S11300300C9403010C9403010C9403010C9403012C
S11300400C9403080C9403010C9403010C94030115
S11300500C941A060C94D8050C9403010C94030117
S11300600C9403010C9403010C9403010C940301FC
S11300700C9403010C9403010C94030150726573F6
S113008073206120627574746F6E20746F207374B2
S113009061727420616761696E0047414D45204F6C
S11300A05645520043535345323031302F373230A6
S11300B03120536E616B652050726F6A65637420E2
S11300C06279205365616E204C696D00536E616BDB
S11300D065003D013A01360132012E012A01260153
S11300E022011E011A01AC01A801A401A0019C0176
S11300F09801940190018D018901850181017C01A0
S11301007801740170016B01670163015E015A019A
S1130110550150014B01460141016492927D6C925C
S1130120926D809EA0C17C92924DE4A2A29D18285B
S113013048FF4492926D468A926342FE037C92A2E7
S11301407D868A92A2C3E0100E10E1C6281028C74B
S1130150FC021C02FDF8040204F9FC0202FD80808A
S1130160FE80816492924DFE9098677C828A7C0323
S1130170FE9090617C82827DFE2010FFFE40304024
S1130180FFFE020203FE1028C7040202FD82FE8362
S1130190FE1010FF7C82925DFE909081FE9292830D
S11301A0FE82827D7C828245FE92926D7E90907F5B
S11301B01B5B3F32356C001B5B25646D001B5B329F
S11301C04A001B5B25643B256448000011241FBEC4
S11301D0CFEFD8E0DEBFCDBF11E0A0E0B1E0E6EBA9
S11301E0F8E102C005900D92AC31B107D9F722E0D5
S11301F0ACE1B1E001C01D92AF37B207E1F70E9454
S11302003A040C94590C0C940000E8E6F0E0808168
S113021082608083D99AECE6F0E080818F608083ED
S113022010921C01089510921C01089580911C01E4
S113023018163CF580911D016FB7F89490911C013C
S11302409230B4F021E030E091E0F901E35EFE4F3A
S11302504081F901E45EFE4F40839F5F292F30E027
S113026040911C01042E000C550B241735076CF328
S113027090911C01915090931C0166231CF4789476
S113028008958FEF08951F920F920FB60F921124C5
S11302902F933F934F935F936F937F938F939F938A
S11302A0EF93FF9343B14F7080911C01883064F544
S11302B080E090E0642F70E09B01082E02C0359529
S11302C027950A94E2F720FF1BC02091250130E016
S11302D0082E02C0359527950A94E2F720FD10C038
S11302E0E0911C0121E02E0F20931C010E2E000C26
S11302F0FF0BE35EFE4F808320911C01283024F421
S1130300019684309105C1F640932501FF91EF9148
S11303109F918F917F916F915F914F913F912F9119
S11303200F900FBE0F901F90189510925C010895C6
S113033030915C01131684F490915D01891771F07A
S1130340EEE5F1E090E003C02191281749F09F5FAA
S11303503913FACF8FEF08958FEF089580E0089551
S1130360892F08950E94980191E08F3F09F490E04D
S1130370892F0895FF920F931F93CF93DF9380915A
S11303805C018830D4F500E010E0D0E0C0E002C0A9
S11303900F5F1F4F2C2FCC0F330B2D5F3F4F200FC0
S11303A0311F2F703078332334F421503109206FFA
S11303B03F6F2F5F3F4F822FC22F6D2FDD0F770BC3
S11303C06B5F7F4F67707078772334F461507109E5
S11303D0686F7F6F6F5F7F4FD62F0E94F402F82EF5
S11303E00336110561F00E94CE068111D1CF8F2D05
S11303F00E94B2018111CCCF04C088E00FC088E014
S11304000DC080915C01E82F082E000CFF0BE35A0D
S1130410FE4FF0828F5F80935C018F2DDF91CF912F
S11304201F910F91FF9008958823B4F020915C01EF
S1130430821794F48F5F821764F4E82F082E000C5F
S1130440FF0BE35AFE4F9081319790838F5F8217A1
S1130450A4F3215020935C0108951F93CF93DF935D
S1130460C82F162F0E94EC02D82F8C2F0E94E9026D
S1130470412F6D2F0E94A202DF91CF911F91089509
S1130480CF93DF930E94E5020E946D060E948E06C0
S11304906FE00E942D020E94970660EF0E942D02D9
S11304A00E949501C3E00E94BA01D82F0E94EE0277
S11304B0882321F063E38D2F0E942D02C15099F708
S11304C0DF91CF9108950F931F93CF93DF930E94F1
S11304D08E06D82F0E94F106C82F88234CF10E9463
S11304E08E06182F8EEF8C0F823080F4812F0E949D
S11304F098010E9414020E94BA01082F0E94EE0281
S1130500882321F063E3802F0E942D02CD7FC13028
S113051029F40E94A00660E00E942D0260EF8D2F56
S11305200E942D026FE0812F0E942D0281E001C004
S113053080E0DF91CF911F910F91089580E80E9490
S1130540770708951F93CF93DF938031B0F4683019
S1130550A0F4142FC62FD82F81E00E949F076C2F80
S1130560677080E1689F900111248D2F8F70822B1A
S11305700E949F07812F0E949F07DF91CF911F91B7
S113058008950F931F93CF93DF93803190F48B01E1
S1130590C82F83E00E949F078C2F8F700E949F07B3
S11305A0E801085F1F4F89910E949F07C017D10778
S11305B0D1F7DF91CF911F910F91089584E00E94AC
S11305C09F0782E00E949F0708958FE00E949F0783
S11305D0089582958F7008958F70089583FB8827FE
S11305E080F991E08927089520E1829FC0011124B8
S11305F06770862B08950E949E020E94050140E0C8
S113060060E07BE480E090E00E9485050E94DD07C5
S113061078940895FF920F931F93CF93DF9380E014
S11306200E94C7070E94BE070E94D40763E083E0CC
S11306300E94A5078CEC90E09F938F930E94490938
S113064065E083E00E94A50780E20E94C70784EA70
S113065090E09F938F930E94490985E20E94C70707
S11306600E94E5020F900F900F900F90CFE00F2E95
S1130670FFE0FF2EF02D0FEF10EFD5E16C2F83E19B
S113068091E00E944E040DC02FE78CE293E02150CC
S113069080409040E1F700C000000E9416018F3FA7
S11306A0A9F50E945D048111EFCF0E94B408DC011A
S11306B0CB0183709927AA27B078BB2354F4019700
S11306C0A109B1098C6F9F6FAF6FBF6F0196A11D18
S11306D0B11D81309105A105B10591F02CF4892B50
S11306E08A2B8B2B59F0CACF82309105A105B10515
S11306F049F00397A105B10539F0C0CFCD2FBECF86
S1130700CF2DBCCFC02FBACFC12FB8CFDF91CF919F
S11307101F910F91FF9008950E94BE070E9440020E
S11307200E9445040E9413010E94D30508954F922C
S11307305F926F927F92BF92CF92DF92EF92FF927D
S11307400F931F93CF93DF930E94F5076B017C01F6
S1130750D0E0BB24BA9409E712E00E941601C82F26
S11307608F3F09F051C00E94CC05882371F1F80134
S1130770808191810E940B09D11104C08B31F1F168
S11307808B2D08C0D13021F48B35D1F18B2D02C0D3
S1130790D230C1F58334D9F5D0E081E00E94B706A8
S11307A014C0D0E080E00E94B7060FC0C33011F03F
S11307B0843421F483E00E94B70607C0C13011F0ED
S11307C0823419F482E00E94B7060E94F5072601DC
S11307D03701F8E54F0EF2E05F1E611C711C6415D1
S11307E075058605970508F4B8CF0E94630288232F
S11307F0B1F00E94F5076B017C01AFCFD1E0E5CFEA
S1130800D2E0E3CFD0E0E1CF882339F204C08134D1
S113081041F2D0E0CBCF823029F28B2DC7CFDF91CC
S1130820CF911F910F91FF90EF90DF90CF90BF90E9
S11308307F906F905F904F9008956EE08AE00E94E1
S1130840A5078AE990E09F938F930E9449096FE07E
S11308508AE00E94A5078CE790E09F938F930E9403
S113086049090F900F900F900F900E9416018F3F2F
S1130870E1F308950E94FB020E940A030E948C0384
S11308800E9497030E941D04F9CF10922601109232
S11308902701109228011092290108956093040100
S11308A090932E0180932D011092300110922F010C
S11308B010922C0110922B0108950F931F93CF9344
S11308C0DF93CDB7DEB728970FB6F894DEBF0FBE1F
S11308D0CDBFE0912F01F0913001309781F0149158
S11308E010FF06C01092300110922F0100E06BC07F
S11308F03196F0933001E0932F0100E064C0E09161
S11309002B01F0912C01309709F449C0CF010196D5
S113091090932C0180932B01E081E1110AC0109285
S11309202C0110922B0180E180932A0100E010E059
S11309304AC08FE98E0F8A3170F4F0E0EE0FFF1F8A
S1130940EC5DFF4F859194919093300180932F013A
S113095000E010E038C08FEB8E0F8A3170F4F0E0C5
S1130960EE0FFF1FEC59FF4F859194919093300146
S113097080932F0100E010E026C080ED8E0F8A30B6
S113098000F5F0E0EE0FFF1FEE58FF4F85919491B4
S11309909093300180932F0100E010E014C0809107
S11309A02D0190912E0101E0009709F000E0909351
S11309B02C0180932B0110922E0110922D0110E036
S11309C002C000E010E00E94DE0220910401FE015A
S11309D03896CE010196112314F4208301C01082AD
S11309E0110F3197E817F907B1F71982BE016F5F4C
S11309F07F4F8FE00E94C10280912A01882389F0F1
S1130A00815080932A01002311F0882311F090E093
S1130A1003C091E001C091E081E0992329F080E0D6
S1130A2003C00023A1F3F7CF28960FB6F894DEBFD6
S1130A300FBECDBFDF91CF911F910F910895CF933A
S1130A40C82F8A3019F48DE00E941F059FB7907853
S1130A5002C0992329F1809166018F3FD1F3F89464
S1130A60E091650181E08E0F80936501F0E0E95922
S1130A70FE4FC083809166018F5F809366018091F1
S1130A8065018F3F11F410926501E1ECF0E0808183
S1130A9080628083992339F0789480E090E005C0E7
S1130AA081E090E002C080E090E0CF9108958091D1
S1130AB078028823E1F32FB72078F89480916602B6
S1130AC03091780290E0831B91095AF4E091660218
S1130AD080917802F0E0E81BF109E958FD4F80812C
S1130AE00AC0E091660280917802F0E0E81BF10907
S1130AF0E959FD4F8081909178029150909378024A
S1130B00222309F0789490E00895109265011092E0
S1130B106601109266021092780210927702409356
S1130B203101DC01CB01880F991FAA1FBB1F880F5D
S1130B30991FAA1FBB1F9C01AD01220F331F441F25
S1130B40551F60E072E18AE790E00E942808BA012C
S1130B50A9014F5F5F4F6F4F7F4FDB01CA011AF44A
S1130B600196A11DB11DB595A795979587950197F8
S1130B709093C5008093C400E1ECF0E088E18083A9
S1130B80808180688083E9E7F2E085E091E09383E7
S1130B9082839183808308959091780281E09111FA
S1130BA001C080E0089510926602109278020895C0
S1130BB01F920F920FB60F9211242F938F939F932E
S1130BC0EF93FF9380916601882329F18091650159
S1130BD02091660190E0821B91095AF4E09165012D
S1130BE080916601F0E0E81BF109EA59FD4F90811C
S1130BF00AC0E091650180916601F0E0E81BF1090B
S1130C00E959FE4F9081809166018150809366017D
S1130C109093C60005C0E1ECF0E080818F7D808375
S1130C20FF91EF919F918F912F910F900FBE0F9095
S1130C301F9018951F920F920FB60F9211242F93A5
S1130C403F934F935F936F937F938F939F93AF9350
S1130C50BF93CF93EF93FF93C091C600809131016E
S1130C60882349F0809166018F3F29F060E070E0AD
S1130C708C2F0E941F0580917802803120F081E042
S1130C808093770218C0CD3009F4CAE0E09166027F
S1130C9081E08E0F80936602F0E0E959FD4FC08336
S1130CA0809178028F5F8093780280916602803110
S1130CB011F410926602FF91EF91CF91BF91AF9121
S1130CC09F918F917F916F915F914F913F912F9160
S1130CD00F900FBE0F901F9018950F931F93CF93F3
S1130CE082E08093360110923401C1E0C093350153
S1130CF061E081E00E94F40207E311E0F8018083DF
S1130D0061E082E00E94F402F8018183C093330120
S1130D10C0933201CF911F910F910895E091350155
S1130D200E2E000CFF0BE95CFE4F80810895E091CC
S1130D3034010E2E000CFF0BE95CFE4F80810895F8
S1130D4090913401E92F092E000CFF0BE95CFE4F52
S1130D5080819F5F913219F09093340102C0109208
S1130D6034019091360191509093360108959091F9
S1130D703301933019F4813071F40895913019F4EA
S1130D80833049F40895911103C0823021F4089509
S1130D90923009F4811180933201089590913401C5
S1130DA03091350140E00DC0E92F092E000CFF0BF6
S1130DB0E95CFE4F2081281789F09F5F91320CF087
S1130DC0942F9313F1CFE32F330FFF0BE95CFE4F06
S1130DD091E02081281719F090E001C091E0892F5B
S1130DE00895CF93DF9380913601813208F075C066
S1130DF0E09135010E2E000CFF0BE95CFE4F808163
S1130E000E94E902D82FC82FE09135010E2E000C64
S1130E10FF0BE95CFE4F80810E94EC02682F9091E9
S1130E203201913059F028F0923069F0933081F01A
S1130E301BC0873091F061E0680F16C0DF3079F095
S1130E40C1E0CD0F11C0882361F06FEF680F0CC0B3
S1130E50DD2349F0CFEFCD0F07C060E005C0C0E04F
S1130E6003C067E001C0CFE08C2F0E94F402C82FBA
S1130E7080913201809333018C2F0E94CE06813001
S1130E8051F4E09135010E2E000CFF0BE95CFE4F8E
S1130E908081C81324C0809135018F5F813219F09D
S1130EA08093350102C010923501E09135010E2E78
S1130EB0000CFF0BE95CFE4FC083809136018F5F0D
S1130EC0809336018C2F0E94B201882351F08091C7
S1130ED03601813240F083E007C08DEF05C08EEF0C
S1130EE003C081E001C082E0DF91CF91089594B105
S1130EF0906B94B92C9A90E59CBD883021F0803297
S1130F0011F0823019F491E09DBD01C01DBC803206
S1130F1069F028F4883071F0803161F00EC08034BB
S1130F2029F0803851F48CB581608CBD8CB5826019
S1130F308CBD03C08CB581608CBD2C9808958EBD8A
S1130F400DB407FEFDCF8EB50895282F082E000C92
S1130F50330B3F938F93862F062E000C990B9F9390
S1130F606F9382EC91E09F938F930E9449090F90B5
S1130F700F900F900F900F900F9008958DEB91E0CC
S1130F809F938F930E9449090F900F9008951F9289
S1130F908F9387EB91E09F938F930E9449090F9061
S1130FA00F900F900F90089580EB91E09F938F9393
S1130FB00E9449090F900F900895109258011092C1
S1130FC0590110925A0110925B0116BC8CE787BD3F
S1130FD082E084BD83E085BDEEE6F0E0808182603E
S1130FE0808385B3827085BB08952FB7F894609190
S1130FF058017091590180915A0190915B0122230B
S11310000CF4789408951F920F920FB60F92112446
S11310108F939F93AF93BF938091580190915901FF
S1131020A0915A01B0915B010196A11DB11D80935D
S1131030580190935901A0935A01B0935B01BF9159
S1131040AF919F918F910F900FBE0F901F901895A5
S1131050052E97FB1EF400940E943F0857FD07D00D
S11310600E94470807FC03D04EF40C943F085095A7
S11310704095309521953F4F4F4F5F4F0895909580
S11310808095709561957F4F8F4F9F4F0895A1E292
S11310901A2EAA1BBB1BFD010DC0AA1FBB1FEE1FEE
S11310A0FF1FA217B307E407F50720F0A21BB30B39
S11310B0E40BF50B661F771F881F991F1A9469F7B5
S11310C060957095809590959B01AC01BD01CF0111
S11310D008958F929F92AF92BF92CF92DF92EF9238
S11310E0FF92CF93DF93EC01688179818A819B81A0
S11310F0611571058105910521F464E279ED8BE5B3
S113110097E02DE133EF41E050E00E9428084901C7
S11311105A019B01AC01A7EAB1E40E94000C6B01E7
S11311207C01ACEEB4EFA50194010E940E0CDC012D
S1131130CB018C0D9D1DAE1DBF1DB7FF03C00197D4
S1131140A109B04888839983AA83BB83BC01CD01DC
S11311509F77DF91CF91FF90EF90DF90CF90BF907A
S1131160AF909F908F9008958F929F92AF92BF926D
S1131170CF92DF92EF92FF92609100017091010192
S1131180809102019091030161157105810591051A
S113119021F464E279ED8BE597E02DE133EF41E052
S11311A050E00E94280849015A019B01AC01A7EABA
S11311B0B1E40E94000C6B017C01ACEEB4EFA5011C
S11311C094010E940E0CDC01CB018C0D9D1DAE1D03
S11311D0BF1DB7FF03C00197A109B0488093000168
S11311E090930101A0930201B0930301BC01CD01CE
S11311F09F77FF90EF90DF90CF90BF90AF909F903C
S11312008F9008956093000170930101809302010F
S1131210909303010895CF93DF93EC012B8120FF7A
S113122033C026FF0AC02F7B2B838E819F810196BA
S11312309F838E838A8190E029C022FF0FC0E881BA
S1131240F9818081082E000C990B009719F4206213
S11312502B831AC03196F983E8830EC0EA85FB8597
S1131260099597FF09C02B81019611F080E201C016
S113127080E1822B8B8308C02E813F812F5F3F4FFB
S11312803F832E83992702C08FEF9FEFDF91CF9189
S11312900895A0E0B0E0EFE4F9E00C94210CAE0175
S11312A0495F5F4FDA016D917D91AD0109E712E06D
S11312B0F80182819381DC0113962C9113972860A5
S11312C013962C930E946F09D8011296ED91FC910C
S11312D013972381277F2383E4E00C943D0CABE038
S11312E0B0E0E5E7F9E00C94130C6C017B018A0192
S11312F0FC0117821682838181FFCCC1CE01019645
S11313003C01F6019381F70193FD859193FF81914F
S11313107F01882309F4BAC1853239F493FD85919C
S113132093FF81917F01853229F4B60190E00E94F8
S1131330660BE7CF912C212C312CFFE1F315D8F06B
S11313408B3279F038F4803279F08332A1F4232D92
S113135020611DC08D3261F0803369F4232D21603A
S113136016C0832D8260382EE32DE4603E2E2AC001
S1131370F32DF8601DC037FC2DC020ED280F2A3056
S113138040F08E32B9F436FC81C1232D2064322E14
S113139019C036FE06C08AE0989E200D1124922EB4
S11313A011C0EAE02E9E200D1124222EF32DF062AE
S11313B03F2E08C08C3621F4832D8068382E02C05D
S11313C0883641F4F70193FD859193FF81917F0164
S11313D08111B3CF982F9F7D9554933028F40C5FDF
S11313E01F4F9FE399830DC0833631F0833771F02B
S11313F0833509F059C021C0F801808189830E5FCB
S11314001F4F88248394912C530113C02801F2E0C8
S11314104F0E511CF801A080B18036FE03C0692D27
S113142070E002C06FEF7FEFC5010E945B0B4C01BF
S11314308201F32DFF773F2E16C0280122E0420ED1
S1131440511CF801A080B18036FE03C0692D70E004
S113145002C06FEF7FEFC5010E94500B4C01F32DCA
S1131460F0683F2E820133FC1BC0822D90E0881669
S11314709906B0F4B60180E290E00E94660B2A94CB
S1131480F4CFF50137FC859137FE81915F01B601F8
S113149090E00E94660B21102A9421E0821A9108A0
S11314A08114910471F7E8C0843611F0893641F54E
S11314B0F80137FE07C060817181828193810C5FDE
S11314C01F4F08C060817181072E000C880B990B97
S11314D00E5F1F4FF32DFF763F2E97FF09C09095A7
S11314E08095709561957F4F8F4F9F4FF0683F2E89
S11314F02AE030E0A3010E94A20B882E861845C082
S1131500853731F4232D2F7EB22E2AE030E025C01A
S1131510932D997FB92E8F36C1F018F4883579F060
S1131520B5C0803719F0883721F0B0C0E92FE061E9
S1131530BE2EB4FE0DC0FB2DF460BF2E09C034FED8
S11315400AC0292F2660B22E06C028E030E005C06C
S113155020E130E002C020E132E0F801B7FE07C02C
S113156060817181828193810C5F1F4F06C060810D
S1131570718180E090E00E5F1F4FA3010E94A20BD7
S1131580882E8618FB2DFF773F2E36FE0DC0232DA7
S11315902E7FA22E891458F434FE0BC032FC09C0ED
S11315A0832D8E7EA82E05C0B82CA32C03C0B82C86
S11315B001C0B92CA4FE0FC0FE01E80DF11D80810D
S11315C0803321F49A2D997EA92E09C0A2FE06C06B
S11315D0B394B39404C08A2D867809F0B394A3FC21
S11315E011C0A0FE06C0B21488F4280C922C9B18DB
S11315F00EC0B21460F4B60180E290E00E94660B63
S1131600B394F7CFB21418F42B1802C0982C212CE1
S1131610A4FE10C0B60180E390E00E94660BA2FE17
S113162017C0A1FC03C088E790E002C088E590E001
S1131630B6010CC08A2D867859F0A1FE02C08BE257
S113164001C080E2A7FC8DE2B60190E00E94660B27
S1131650891438F4B60180E390E00E94660B9A94F2
S1131660F7CF8A94F301E80DF11D8081B60190E073
S11316700E94660B8110F5CF222009F442CEB601F8
S113168080E290E00E94660B2A94F6CFF6018681F0
S1131690978102C08FEF9FEF2B96E2E10C942F0C01
S11316A0FC010590615070400110D8F78095909529
S11316B08E0F9F1F0895FC0161507040019001102E
S11316C0D8F7809590958E0F9F1F08950F931F93C1
S11316D0CF93DF93FB01238121FD03C08FEF9FEFA5
S11316E02CC022FF16C046815781248135814217C0
S11316F0530744F4A081B1819D012F5F3F4F318393
S113170020838C93268137812F5F3F4F3783268335
S113171014C08B01EC01FB010084F185E02D0995D7
S1131720892BE1F6D80116968D919C911797019615
S113173017969C938E931697CE01DF91CF911F91AC
S11317400F910895FA01AA27283051F1203181F12F
S1131750E8946F936E7F6E5F7F4F8F4F9F4FAF4FB5
S1131760B1E03ED0B4E03CD0670F781F891F9A1FC8
S1131770A11D680F791F8A1F911DA11D6A0F711D7C
S1131780811D911DA11D20D009F468943F912AE088
S1131790269F11243019305D3193DEF6CF01089570
S11317A0462F4770405D4193B3E00FD0C9F7F6CFA1
S11317B0462F4F70405D4A3318F0495D31FD405269
S11317C0419302D0A9F7EACFB4E0A69597958795FF
S11317D077956795BA95C9F70097610571050895DE
S11317E09B01AC010A2E069457954795379527958A
S11317F0BA95C9F7620F731F841F951FA01D089522
S11318000E944A0CA59F900DB49F900DA49F800D3B
S1131810911D11240895B7FF0C94000C0E94000C34
S1131820821B930B08952F923F924F925F926F9277
S11318307F928F929F92AF92BF92CF92DF92EF925C
S1131840FF920F931F93CF93DF93CDB7DEB7CA1BDD
S1131850DB0B0FB6F894DEBF0FBECDBF09942A8808
S1131860398848885F846E847D848C849B84AA84B0
S1131870B984C884DF80EE80FD800C811B81AA813D
S1131880B981CE0FD11D0FB6F894DEBF0FBECDBF08
S1131890ED010895A29FB001B39FC001A39F700DF5
S11318A0811D1124911DB29F700D811D1124911D64
S10918B00895F894FFCF37
S11318B6010000000F00000003000000001F055790
S10F18C60500003433303531373139006F
S9030000FC
