:100000000C94EE000C940B010C940B010C940B015E
:100010000C940B010C944B010C940B010C940B01F0
:100020000C940B010C940B010C940B010C940B0120
:100030000C940B010C940B010C940B010C940B0110
:100040000C9415090C940B010C940B010C940B01EE
:100050000C9422070C94E0060C940B010C940B01F9
:100060000C940B010C940B010C940B010C940B01E0
:100070000C940B010C940B010C940B0150726573E2
:1000800073206120627574746F6E20746F207374B6
:1000900061727420616761696E0047414D45204F70
:1000A00056455200256400256400435353453230C1
:1000B00031302F3732303120536E616B65205072F2
:1000C0006F6A656374206279205365616E204C69A4
:1000D0006D00536E616B650053636F72653A202546
:1000E0006C64004E014B01470143013F013B013766
:1000F0000133012F012B01BD01B901B501B101ADE2
:1001000001A901A501A1019E019A01960192018D0B
:10011000018901850181017C01780174016F016B06
:1001200001660161015C01570152016492927D6C8C
:1001300092926D809EA0C17C92924DE4A2A29D18E5
:100140002848FF4492926D468A926342FE037C9255
:10015000A27D868A92A2C3E0100E10E1C628102864
:10016000C7FC021C02FDF8040204F9FC0202FD8037
:1001700080FE80816492924DFE9098677C828A7C9A
:1001800003FE9090617C82827DFE2010FFFE403055
:1001900040FFFE020203FE1028C7040202FD82FE99
:1001A00083FE1010FF7C82925DFE909081FE929201
:1001B00083FE82827D7C828245FE92926D7E90904B
:1001C0007F1B5B3F32356C001B5B25646D001B5B46
:1001D000324A001B5B25643B2564480011241FBE86
:1001E000CFEFD8E0DEBFCDBF11E0A0E0B1E0EAED97
:1001F000FAE102C005900D92A832B107D9F722E0CA
:10020000A8E2B1E001C01D92AB38B207E1F70E944D
:100210000F050C946B0D0C940000E8E6F0E0808173
:1002200082608083D99AECE6F0E080818F608083E1
:1002300010922801089510922801089580912801B4
:1002400018163CF5809129016FB7F8949091280118
:100250009230B4F021E030E091E0F901E75DFE4F2B
:100260004081F901E85DFE4F40839F5F292F30E018
:1002700040912801042E000C550B241735076CF310
:100280009091280191509093280166231CF4789452
:1002900008958FEF08951F920F920FB60F921124B9
:1002A0002F933F934F935F936F937F938F939F937E
:1002B000EF93FF9343B14F7080912801883064F52C
:1002C00080E090E0642F70E09B01082E02C035951D
:1002D00027950A94E2F720FF1BC02091310130E0FE
:1002E000082E02C0359527950A94E2F720FD10C02C
:1002F000E091280121E02E0F209328010E2E000C02
:10030000FF0BE75DFE4F808320912801283024F405
:10031000019684309105C1F640933101FF91EF9130
:100320009F918F917F916F915F914F913F912F910D
:100330000F900FBE0F901F901895109268010895AE
:1003400030916801131684F490916901891771F056
:10035000EAE6F1E090E003C02191281749F09F5FA1
:100360003913FACF8FEF08958FEF089580E0089545
:10037000892F08950E94A00191E08F3F09F490E039
:10038000892F0895FF920F931F93CF93DF9380914E
:1003900068018830D4F500E010E0D0E0C0E002C091
:1003A0000F5F1F4F2C2FCC0F330B2D5F3F4F200FB4
:1003B000311F2F703078332334F421503109206FEE
:1003C0003F6F2F5F3F4F822FC22F6D2FDD0F770BB7
:1003D0006B5F7F4F67707078772334F461507109D9
:1003E000686F7F6F6F5F7F4FD62F0E941403F82EC8
:1003F0000336110561F00E94D9078111D1CF8F2DED
:100400000E94BA018111CCCF04C088E00FC088E0FF
:100410000DC080916801E82F082E000CFF0BE759F2
:10042000FE4FF0828F5F809368018F2DDF91CF9117
:100430001F910F91FF9008958823B4F020916801D7
:10044000821794F48F5F821764F4E82F082E000C53
:10045000FF0BE759FE4F9081319790838F5F821792
:10046000A4F321502093680108951F93CF93DF9345
:10047000C82F162F0E940C03D82F8C2F0E9409031F
:10048000412F6D2F0E94C202DF91CF911F910895DD
:10049000CF93DF930E94050388E592E090930501D6
:1004A000809304010E9475070E9496076FE00E94E6
:1004B00035020E949F0760EF0E9435020E949D0155
:1004C000C3E00E94C201D82F0E940E03882321F0AE
:1004D00063E38D2F0E943502C15099F7DF91CF91D0
:1004E00008950F931F93CF93DF930E949607D82F01
:1004F0000E94FC07C82F8823B4F10E949607182F8A
:100500008EEF8C0F8230E8F4812F0E94A0010E94B0
:100510001C0283E090E00E942305809104019091E9
:1005200005010F9790930501809304010E94C20179
:10053000082F0E940E03882321F063E3802F0E947E
:100540003502CD7FC13029F40E94AB0760E00E94E4
:10055000350260EF8D2F0E9435026FE0812F0E94DF
:10056000350281E001C080E0DF91CF911F910F91B2
:1005700008958091040190910501089580E80E94FA
:10058000890808951F93CF93DF938031B0F46830CA
:10059000A0F4142FC62FD82F81E00E94B1086C2F31
:1005A000677080E1689F900111248D2F8F70822BDE
:1005B0000E94B108812F0E94B108DF91CF911F9155
:1005C00008950F931F93CF93DF93803190F48B01A5
:1005D000C82F83E00E94B1088C2F8F700E94B10851
:1005E000E801085F1F4F89910E94B108C017D10729
:1005F000D1F7DF91CF911F910F91089584E00E9470
:10060000B10882E00E94B10808958FE00E94B1080D
:10061000089582958F7008958F70089583FB8827C1
:1006200080F991E08927089520E1829FC00111247B
:100630006770862B08958FEF87B981E081B908959F
:100640000E94BE020E940D0140E060E07BE480E079
:1006500090E00E948D060E94EF080E941B03789490
:100660000895FF920F931F93CF93DF9380E00E9432
:10067000D9080E94D0080E94E60863E083E00E9447
:10068000B70882ED90E09F938F930E945B0A65E02C
:1006900083E00E94B70880E20E94D9088AEA90E0CD
:1006A0009F938F930E945B0A85E20E94D9080E9463
:1006B00005030F900F900F900F90CFE00F2EFFE0EB
:1006C000FF2EF02D0FEF10EFD5E16C2F8FE191E0B1
:1006D0000E9456050DC02FE78CE293E02150804028
:1006E0009040E1F700C000000E941E018F3FA9F575
:1006F0000E9465058111EFCF0E94C609DC01CB0184
:1007000083709927AA27B078BB2354F40197A109D5
:10071000B1098C6F9F6FAF6FBF6F0196A11DB11DA7
:1007200081309105A105B10591F02CF4892B8A2B1C
:100730008B2B59F0CACF82309105A105B10549F044
:100740000397A105B10539F0C0CFCD2FBECFCF2D76
:10075000BCCFC02FBACFC12FB8CFDF91CF911F919F
:100760000F91FF9008950E94D0080E9448020E94B5
:100770001A050E941B010E94DB0608952F923F92EA
:100780004F925F926F927F928F929F92AF92BF92A1
:10079000CF92DF92EF92FF920F931F93CF93DF934D
:1007A0001F92CDB7DEB70E9407094B015C01198289
:1007B000332433940F2EFDEC2F2EF02D0F2EF5E069
:1007C0004F2E512C612C712CF02D0E941E01182FE0
:1007D0008F3F51F50E94D406882351F1E5E8F2E0FD
:1007E000808191810E941D0AF82EF981F11108C0C3
:1007F0002BE1821321C039820FEFFF24FA9423C02A
:100800008981813049F49BE5F91218C0E2E0E9835F
:100810000FEFFF24FA9417C0F981F23091F40F2DF5
:100820001982FF24FA940FC00FEFFF24FA940BC033
:100830000FEFFF24FA9407C00FEF05C019820FEFE6
:1008400002C019820FEF0E94070960FD15C00E94C7
:10085000A80712B8829D912D11249695969596958C
:10086000990F292F220F220F920F891BE82FF0E0FA
:10087000EA5FFE4F808188B90E940709A3019201B7
:100880000E943A09672B682B692B71F40E94A80714
:1008900032B8829DE12D1124E695E695E695F0E0CB
:1008A000EA5FFE4F808188B9112311F0033421F4EF
:1008B000832D0E94C20765C0123011F0013421F46B
:1008C00080E00E94C2075DC0133011F0043421F4AF
:1008D00083E00E94C20755C0113011F0023421F4A8
:1008E00082E00E94C2074DC08F2D8F7D803509F0B8
:1008F00048C00E9407096B017C01C818D908EA08A2
:10090000FB080E94A807829D912D1124969596952B
:100910009695990F292F220F220F920F891B1F9254
:100920008F9387EA90E09F938F930E945B0A0E94C7
:10093000A807829D812D11248695869586951F9204
:100940008F9384EA90E09F938F930E945B0A0FB687
:10095000F894DEBF0FBECDBF0E94D4068823E1F31A
:10096000E5E8F2E0808191810E941D0A8F7D80354B
:1009700099F70E9407094B015C018C189D08AE088D
:10098000BF080E9407096B017C010E94B902092E71
:10099000000CAA0BBB0B880D991DAA1DBB1DC81608
:1009A000D906EA06FB0608F410CF0E9471028823DC
:1009B00029F00E9407094B015C0107CF0F90DF91DE
:1009C000CF911F910F91FF90EF90DF90CF90BF904C
:1009D000AF909F908F907F906F905F904F903F90DF
:1009E0002F9008956EE08AE00E94B7088AE990E0AF
:1009F0009F938F930E945B0A6FE08AE00E94B70882
:100A00008CE790E09F938F930E945B0A0F900F906A
:100A10000F900F900E941E018F3FE1F308950E94F6
:100A200020030E9431030E94B3030E94BE030E9470
:100A3000F204F9CF10923201109233011092340176
:100A40001092350108954091320150913301609127
:100A5000340170913501480F591F611D711D40937C
:100A600032015093330160933401709335010E9439
:100A7000E60860E082E30E94B708809135018F9319
:100A8000809134018F93809133018F938091320153
:100A90008F9388ED90E09F938F930E945B0A0F9055
:100AA0000F900F900F900F900F900895609310018A
:100AB00090933A018093390110923C0110923B01CE
:100AC000109238011092370108950F931F93CF931E
:100AD000DF93CDB7DEB728970FB6F894DEBF0FBE11
:100AE000CDBFE0913B01F0913C01309781F0149132
:100AF00010FF06C010923C0110923B0100E06BC059
:100B00003196F0933C01E0933B0100E064C0E0913A
:100B10003701F0913801309709F449C0CF010196AF
:100B20009093380180933701E081E1110AC010925F
:100B300038011092370180E18093360100E010E027
:100B40004AC08FE98E0F8A3170F4F0E0EE0FFF1F7C
:100B5000EB5CFF4F8591949190933C0180933B0116
:100B600000E010E038C08FEB8E0F8A3170F4F0E0B7
:100B7000EE0FFF1FEB58FF4F8591949190933C012E
:100B800080933B0100E010E026C080ED8E0F8A309C
:100B900000F5F0E0EE0FFF1FED57FF4F85919491A8
:100BA00090933C0180933B0100E010E014C08091E1
:100BB000390190913A0101E0009709F000E090932B
:100BC00038018093370110923A011092390110E0F8
:100BD00002C000E010E00E94FE0220911001FE0120
:100BE0003896CE010196112314F4208301C010829F
:100BF000110F3197E817F907B1F71982BE016F5F3E
:100C00007F4F8FE00E94E10280913601882389F0B6
:100C1000815080933601002311F0882311F090E079
:100C200003C091E001C091E081E0992329F080E0C8
:100C300003C00023A1F3F7CF28960FB6F894DEBFC8
:100C40000FBECDBFDF91CF911F910F910895CF932C
:100C5000C82F8A3019F48DE00E9427069FB790783C
:100C600002C0992329F1809172018F3FD1F3F8944A
:100C7000E091710181E08E0F80937101F0E0ED58F9
:100C8000FE4FC083809172018F5F809372018091CB
:100C900071018F3F11F410927101E1ECF0E080815D
:100CA00080628083992339F0789480E090E005C0D9
:100CB00081E090E002C080E090E0CF9108958091C3
:100CC00084028823E1F32FB72078F8948091720290
:100CD0003091840290E0831B91095AF4E0917202F2
:100CE00080918402F0E0E81BF109ED57FD4F80810F
:100CF0000AC0E091720280918402F0E0E81BF109E1
:100D0000ED58FD4F80819091840291509093840220
:100D1000222309F0789490E00895109271011092C6
:100D20007201109272021092840210928302409318
:100D30003D01DC01CB01880F991FAA1FBB1F880F43
:100D4000991FAA1FBB1F9C01AD01220F331F441F17
:100D5000551F60E072E18AE790E00E945C09BA01E9
:100D6000A9014F5F5F4F6F4F7F4FDB01CA011AF43C
:100D70000196A11DB11DB595A795979587950197EA
:100D80009093C5008093C400E1ECF0E088E180839B
:100D9000808180688083E5E8F2E081E191E09383DF
:100DA00082839183808308959091840281E09111E0
:100DB00001C080E00895109272021092840208959A
:100DC0001F920F920FB60F9211242F938F939F9320
:100DD000EF93FF9380917201882329F18091710133
:100DE0002091720190E0821B91095AF4E091710107
:100DF00080917201F0E0E81BF109EE58FD4F9081FF
:100E00000AC0E091710180917201F0E0E81BF109E4
:100E1000ED58FE4F90818091720181508093720154
:100E20009093C60005C0E1ECF0E080818F7D808367
:100E3000FF91EF919F918F912F910F900FBE0F9087
:100E40001F9018951F920F920FB60F9211242F9397
:100E50003F934F935F936F937F938F939F93AF9342
:100E6000BF93CF93EF93FF93C091C60080913D0154
:100E7000882349F0809172018F3F29F060E070E093
:100E80008C2F0E94270680918402803120F081E01F
:100E90008093830218C0CD3009F4CAE0E091720259
:100EA00081E08E0F80937202F0E0ED58FD4FC08319
:100EB000809184028F5F80938402809172028031DE
:100EC00011F410927202FF91EF91CF91BF91AF9107
:100ED0009F918F917F916F915F914F913F912F9152
:100EE0000F900FBE0F901F9018950F931F93CF93E5
:100EF00082E08093420110924001C1E0C093410121
:100F000061E081E00E94140303E411E0F8018083B2
:100F100061E082E00E941403F8018183C0933F01E5
:100F2000C0933E01CF911F910F910895E09141012F
:100F30000E2E000CFF0BED5BFE4F80810895E091BB
:100F400040010E2E000CFF0BED5BFE4F80810895DB
:100F500080914201089590914001E92F092E000CE3
:100F6000FF0BED5BFE4F80819F5F913219F09093F4
:100F7000400102C010924001909142019150909323
:100F80004201089590913F01933019F4813071F43A
:100F90000895913019F4833049F40895911103C0F4
:100FA000823021F40895923009F4811180933E013A
:100FB0000895909140013091410140E00DC0E92F2A
:100FC000092E000CFF0BED5BFE4F2081281789F0E6
:100FD0009F5F91320CF0942F9313F1CFE32F330FD7
:100FE000FF0BED5BFE4F91E02081281719F090E098
:100FF00001C091E0892F0895CF93DF938091420142
:10100000813208F07CC0E09141010E2E000CFF0BF4
:10101000ED5BFE4F80810E940903D82FC82FE0911D
:1010200041010E2E000CFF0BED5BFE4F80810E94F4
:101030000C03682F90913E01913059F028F09230C6
:1010400069F0933081F01BC0873091F061E0680F48
:1010500016C0DF3079F0C1E0CD0F11C0882361F0F8
:101060006FEF680F0CC0DD2349F0CFEFCD0F07C045
:1010700060E005C0C0E003C067E001C0CFE08C2F96
:101080000E941403C82F80913E0180933F018C2F52
:101090000E94D907813051F4E09141010E2E000CDD
:1010A000FF0BED5BFE4F8081C8132BC081E090E009
:1010B0000E94230580E00E94D908809141018F5F42
:1010C000813219F08093410102C010924101E091F8
:1010D00041010E2E000CFF0BED5BFE4FC083809193
:1010E00042018F5F809342018C2F0E94BA018823B6
:1010F00051F080914201813240F083E007C08DEFD2
:1011000005C08EEF03C081E001C082E0DF91CF9186
:10111000089594B1906B94B92C9A90E59CBD883059
:1011200021F0803211F0823019F491E09DBD01C0B0
:101130001DBC803269F028F4883071F0803161F094
:101140000EC0803429F0803851F48CB581608CBD9C
:101150008CB582608CBD03C08CB581608CBD2C9831
:1011600008958EBD0DB407FEFDCF8EB50895282FCE
:10117000082E000C330B3F938F93862F062E000C06
:10118000990B9F936F9383ED91E09F938F930E94B0
:101190005B0A0F900F900F900F900F900F90089593
:1011A0008EEC91E09F938F930E945B0A0F900F90BB
:1011B00008951F928F9388EC91E09F938F930E94E4
:1011C0005B0A0F900F900F900F90089581EC91E0C3
:1011D0009F938F930E945B0A0F900F900895109237
:1011E000640110926501109266011092670116BCAD
:1011F0008CE787BD82E084BD83E085BDEEE6F0E04C
:1012000080818260808385B3827085BB08952FB70B
:10121000F8946091640170916501809166019091EC
:10122000670122230CF4789408951F920F920FB651
:101230000F9211248F939F93AF93BF93809164017A
:1012400090916501A0916601B09167010196A11D81
:10125000B11D8093640190936501A0936601B093E2
:101260006701BF91AF919F918F910F900FBE0F902B
:101270001F901895A1E21A2EAA1BBB1BFD010DC0E1
:10128000AA1FBB1FEE1FFF1FA217B307E407F50736
:1012900020F0A21BB30BE40BF50B661F771F881F12
:1012A000991F1A9469F760957095809590959B01A8
:1012B000AC01BD01CF010895052E97FB1EF40094EB
:1012C0000E94730957FD07D00E943A0907FC03D01A
:1012D0004EF40C94730950954095309521953F4FED
:1012E0004F4F5F4F089590958095709561957F4F12
:1012F0008F4F9F4F08958F929F92AF92BF92CF9240
:10130000DF92EF92FF92CF93DF93EC0168817981B6
:101310008A819B81611571058105910521F464E243
:1013200079ED8BE597E02DE133EF41E050E00E944D
:101330005C0949015A019B01AC01A7EAB1E40E9492
:10134000120D6B017C01ACEEB4EFA50194010E947B
:10135000200DDC01CB018C0D9D1DAE1DBF1DB7FF07
:1013600003C00197A109B04888839983AA83BB83EE
:10137000BC01CD019F77DF91CF91FF90EF90DF907F
:10138000CF90BF90AF909F908F9008958F929F9233
:10139000AF92BF92CF92DF92EF92FF9260910001E5
:1013A0007091010180910201909103016115710515
:1013B0008105910521F464E279ED8BE597E02DE15B
:1013C00033EF41E050E00E945C0949015A019B0162
:1013D000AC01A7EAB1E40E94120D6B017C01ACEEF6
:1013E000B4EFA50194010E94200DDC01CB018C0D0E
:1013F0009D1DAE1DBF1DB7FF03C00197A109B048D9
:101400008093000190930101A0930201B093030126
:10141000BC01CD019F77FF90EF90DF90CF90BF9000
:10142000AF909F908F900895609300017093010199
:1014300080930201909303010895CF93DF93EC0111
:101440002B8120FF33C026FF0AC02F7B2B838E8188
:101450009F8101969F838E838A8190E029C022FF1D
:101460000FC0E881F9818081082E000C990B00974C
:1014700019F420622B831AC03196F983E8830EC0D9
:10148000EA85FB85099597FF09C02B81019611F02C
:1014900080E201C080E1822B8B8308C02E813F81D6
:1014A0002F5F3F4F3F832E83992702C08FEF9FEF1F
:1014B000DF91CF910895A0E0B0E0E1E6FAE00C946E
:1014C000330DAE01495F5F4FDA016D917D91AD0142
:1014D00005E812E0F80182819381DC0113962C91DA
:1014E0001397286013962C930E94810AD8011296B4
:1014F000ED91FC9113972381277F2383E4E00C94E3
:101500004F0DABE0B0E0E7E8FAE00C94250D6C017C
:101510007B018A01FC0117821682838181FFCCC185
:10152000CE0101963C01F6019381F70193FD85916F
:1015300093FF81917F01882309F4BAC1853239F480
:1015400093FD859193FF81917F01853229F4B60146
:1015500090E00E94780CE7CF912C212C312CFFE1F8
:10156000F315D8F08B3279F038F4803279F0833289
:10157000A1F4232D20611DC08D3261F0803369F408
:10158000232D216016C0832D8260382EE32DE46068
:101590003E2E2AC0F32DF8601DC037FC2DC020ED73
:1015A000280F2A3040F08E32B9F436FC81C1232D49
:1015B0002064322E19C036FE06C08AE0989E200DA7
:1015C0001124922E11C0EAE02E9E200D1124222E0D
:1015D000F32DF0623F2E08C08C3621F4832D8068F5
:1015E000382E02C0883641F4F70193FD859193FFB0
:1015F00081917F018111B3CF982F9F7D95549330B6
:1016000028F40C5F1F4F9FE399830DC0833631F0A0
:10161000833771F0833509F059C021C0F80180810A
:1016200089830E5F1F4F88248394912C530113C02C
:101630002801F2E04F0E511CF801A080B18036FE67
:1016400003C0692D70E002C06FEF7FEFC5010E94FB
:101650006D0C4C018201F32DFF773F2E16C028013F
:1016600022E0420E511CF801A080B18036FE03C07A
:10167000692D70E002C06FEF7FEFC5010E94620C20
:101680004C01F32DF0683F2E820133FC1BC0822DEC
:1016900090E088169906B0F4B60180E290E00E94CE
:1016A000780C2A94F4CFF50137FC859137FE8191AF
:1016B0005F01B60190E00E94780C21102A9421E08D
:1016C000821A91088114910471F7E8C0843611F0F0
:1016D000893641F5F80137FE07C06081718182814A
:1016E00093810C5F1F4F08C060817181072E000C31
:1016F000880B990B0E5F1F4FF32DFF763F2E97FF40
:1017000009C090958095709561957F4F8F4F9F4F41
:10171000F0683F2E2AE030E0A3010E94B40C882E2E
:10172000861845C0853731F4232D2F7EB22E2AE04E
:1017300030E025C0932D997FB92E8F36C1F018F473
:10174000883579F0B5C0803719F0883721F0B0C0FE
:10175000E92FE061BE2EB4FE0DC0FB2DF460BF2E5C
:1017600009C034FE0AC0292F2660B22E06C028E028
:1017700030E005C020E130E002C020E132E0F801B5
:10178000B7FE07C060817181828193810C5F1F4F1A
:1017900006C06081718180E090E00E5F1F4FA30161
:1017A0000E94B40C882E8618FB2DFF773F2E36FE44
:1017B0000DC0232D2E7FA22E891458F434FE0BC0A9
:1017C00032FC09C0832D8E7EA82E05C0B82CA32C18
:1017D00003C0B82C01C0B92CA4FE0FC0FE01E80D57
:1017E000F11D8081803321F49A2D997EA92E09C0A4
:1017F000A2FE06C0B394B39404C08A2D867809F083
:10180000B394A3FC11C0A0FE06C0B21488F4280C47
:10181000922C9B180EC0B21460F4B60180E290E0E6
:101820000E94780CB394F7CFB21418F42B1802C0AE
:10183000982C212CA4FE10C0B60180E390E00E94F9
:10184000780CA2FE17C0A1FC03C088E790E002C09C
:1018500088E590E0B6010CC08A2D867859F0A1FE8B
:1018600002C08BE201C080E2A7FC8DE2B60190E0ED
:101870000E94780C891438F4B60180E390E00E944D
:10188000780C9A94F7CF8A94F301E80DF11D8081CA
:10189000B60190E00E94780C8110F5CF222009F467
:1018A00042CEB60180E290E00E94780C2A94F6CFF6
:1018B000F6018681978102C08FEF9FEF2B96E2E1C0
:1018C0000C94410DFC010590615070400110D8F757
:1018D000809590958E0F9F1F0895FC016150704078
:1018E00001900110D8F7809590958E0F9F1F089555
:1018F0000F931F93CF93DF93FB01238121FD03C03F
:101900008FEF9FEF2CC022FF16C0468157812481A4
:1019100035814217530744F4A081B1819D012F5FA7
:101920003F4F318320838C93268137812F5F3F4F38
:101930003783268314C08B01EC01FB010084F18501
:10194000E02D0995892BE1F6D80116968D919C9191
:101950001797019617969C938E931697CE01DF9159
:10196000CF911F910F910895FA01AA27283051F1C4
:10197000203181F1E8946F936E7F6E5F7F4F8F4FC0
:101980009F4FAF4FB1E03ED0B4E03CD0670F781F1F
:10199000891F9A1FA11D680F791F8A1F911DA11D04
:1019A0006A0F711D811D911DA11D20D009F468943D
:1019B0003F912AE0269F11243019305D3193DEF6E5
:1019C000CF010895462F4770405D4193B3E00FD09B
:1019D000C9F7F6CF462F4F70405D4A3318F0495D86
:1019E00031FD4052419302D0A9F7EACFB4E0A69569
:1019F0009795879577956795BA95C9F7009761058B
:101A0000710508959B01AC010A2E069457954795E0
:101A100037952795BA95C9F7620F731F841F951FD5
:101A2000A01D08950E945C0DA59F900DB49F900D80
:101A3000A49F800D911D11240895B7FF0C94120DE1
:101A40000E94120D821B930B08952F923F924F928A
:101A50005F926F927F928F929F92AF92BF92CF923E
:101A6000DF92EF92FF920F931F93CF93DF93CDB747
:101A7000DEB7CA1BDB0B0FB6F894DEBF0FBECDBFBF
:101A800009942A88398848885F846E847D848C8490
:101A90009B84AA84B984C884DF80EE80FD800C8199
:101AA0001B81AA81B981CE0FD11D0FB6F894DEBF7C
:101AB0000FBECDBFED010895A29FB001B39FC0013D
:101AC000A39F700D811D1124911DB29F700D811D6A
:0A1AD0001124911D0895F894FFCF32
:101ADA000100000058023F065B4F666D7D077F6F6D
:101AEA000F000000030000000027065F0600003414
:081AFA0033303531373139007A
:00000001FF
