S010000070726F6A656374322E73726563EB
S11300000C94EB000C9408010C9408010C94080166
S11300100C9408010C9448010C9408010C940801F8
S11300200C9408010C9408010C9408010C94080128
S11300300C9408010C9408010C9408010C94080118
S11300400C9487080C9408010C9408010C94080182
S11300500C9497060C9455060C9408010C94080112
S11300600C9408010C9408010C9408010C940801E8
S11300700C9408010C9408010C94080150726573E7
S113008073206120627574746F6E20746F207374B2
S113009061727420616761696E0047414D45204F6C
S11300A05645520043535345323031302F373230A6
S11300B03120536E616B652050726F6A65637420E2
S11300C06279205365616E204C696D00536E616BDB
S11300D0650053636F72653A20256C6400480145DE
S11300E00141013D013901350131012D012901256C
S11300F001B701B301AF01AB01A701A3019F019BAC
S1130100019801940190018C01870183017F017B97
S113011001760172016E016901650160015B01569E
S11301200151014C016492927D6C92926D809EA06B
S1130130C17C92924DE4A2A29D182848FF44929259
S11301406D468A926342FE037C92A27D868A92A2C5
S1130150C3E0100E10E1C6281028C7FC021C02FDE3
S1130160F8040204F9FC0202FD8080FE808164929E
S1130170924DFE9098677C828A7C03FE9090617C0D
S113018082827DFE2010FFFE403040FFFE0202030B
S1130190FE1028C7040202FD82FE83FE1010FF7CBD
S11301A082925DFE909081FE929283FE82827D7C9B
S11301B0828245FE92926D7E90907F1B5B3F32352A
S11301C06C001B5B25646D001B5B324A001B5B25C6
S11301D0643B2564480011241FBECFEFD8E0DEBF86
S11301E0CDBF11E0A0E0B1E0EEEBF9E102C0059073
S11301F00D92AE31B107D9F722E0AEE1B1E001C012
S11302001D92A138B207E1F70E9484040C94DD0C1E
S11302100C940000E8E6F0E0808182608083D99A43
S1130220ECE6F0E080818F60808310921E010895D7
S113023010921E01089580911E0118163CF58091BC
S11302401F016FB7F89490911E019230B4F021E031
S113025030E091E0F901E15EFE4F4081F901E25E98
S1130260FE4F40839F5F292F30E040911E01042EF2
S1130270000C550B241735076CF390911E01915017
S113028090931E0166231CF4789408958FEF0895CB
S11302901F920F920FB60F9211242F933F934F93F7
S11302A05F936F937F938F939F93EF93FF9343B1E8
S11302B04F7080911E01883064F580E090E0642FD7
S11302C070E09B01082E02C0359527950A94E2F749
S11302D020FF1BC02091270130E0082E02C0359575
S11302E027950A94E2F720FD10C0E0911E0121E059
S11302F02E0F20931E010E2E000CFF0BE15EFE4F0D
S1130300808320911E01283024F4019684309105C5
S1130310C1F640932701FF91EF919F918F917F91B7
S11303206F915F914F913F912F910F900FBE0F905E
S11303301F90189510925E01089530915E01131676
S113034084F490915F01891771F0E0E6F1E090E0A8
S113035003C02191281749F09F5F3913FACF8FEF1B
S113036008958FEF089580E00895892F08950E94DD
S11303709D0191E08F3F09F490E0892F0895FF9249
S11303800F931F93CF93DF9380915E018830D4F550
S113039000E010E0D0E0C0E002C00F5F1F4F2C2F40
S11303A0CC0F330B2D5F3F4F200F311F2F70307850
S11303B0332334F421503109206F3F6F2F5F3F4FB7
S11303C0822FC22F6D2FDD0F770B6B5F7F4F67700E
S11303D07078772334F461507109686F7F6F6F5FB1
S11303E07F4FD62F0E940F03F82E0336110561F0BC
S11303F00E944B078111D1CF8F2D0E94B70181112B
S1130400CCCF04C088E00FC088E00DC080915E01AD
S1130410E82F082E000CFF0BE15AFE4FF0828F5F8D
S113042080935E018F2DDF91CF911F910F91FF90EB
S113043008958823B4F020915E01821794F48F5FAD
S1130440821764F4E82F082E000CFF0BE15AFE4FCC
S11304509081319790838F5F8217A4F3215020936A
S11304605E0108951F93CF93DF93C82F162F0E9428
S11304700703D82F8C2F0E940403412F6D2F0E9455
S1130480BD02DF91CF911F910895CF93DF930E9416
S1130490000388E592E090930501809304010E9493
S11304A0EA060E940B076FE00E9432020E941407C2
S11304B060EF0E9432020E949A01C3E00E94BF01D1
S11304C0D82F0E940903882321F063E38D2F0E9413
S11304D03202C15099F7DF91CF9108950F931F9382
S11304E0CF93DF930E940B07D82F0E946E07C82F6B
S11304F08823B4F10E940B07182F8EEF8C0F8230E3
S1130500E8F4812F0E949D010E94190283E090E08B
S11305100E94980480910401909105010F97909393
S11305200501809304010E94BF01082F0E94090362
S1130530882321F063E3802F0E943202CD7FC130F3
S113054029F40E941D0760E00E94320260EF8D2FA3
S11305500E9432026FE0812F0E94320281E001C0CA
S113056080E0DF91CF911F910F9108958091040154
S1130570089580E80E94FB0708951F93CF93DF93AB
S11305808031B0F46830A0F4142FC62FD82F81E046
S11305900E9423086C2F677080E1689F90011124EA
S11305A08D2F8F70822B0E942308812F0E94230895
S11305B0DF91CF911F9108950F931F93CF93DF93F2
S11305C0803190F48B01C82F83E00E9423088C2F84
S11305D08F700E942308E801085F1F4F89910E94D1
S11305E02308C017D107D1F7DF91CF911F910F9145
S11305F0089584E00E94230882E00E94230808955D
S11306008FE00E942308089582958F7008958F705B
S1130610089583FB882780F991E08927089520E1D4
S1130620829FC00111246770862B08950E94B9022D
S11306300E940A0140E060E07BE480E090E00E94D8
S113064002060E94610878940895FF920F931F9305
S1130650CF93DF9380E00E944B080E9442080E94DF
S1130660580863E083E00E9429088CEC90E09F9393
S11306708F930E94CD0965E083E00E94290880E2FF
S11306800E944B0884EA90E09F938F930E94CD09C7
S113069085E20E944B080E9400030F900F900F9078
S11306A00F90CFE00F2EFFE0FF2EF02D0FEF10EF95
S11306B0D5E16C2F85E191E00E94CB040DC02FE7BA
S11306C08CE293E0215080409040E1F700C00000AC
S11306D00E941B018F3FA9F50E94DA048111EFCF1C
S11306E00E943809DC01CB0183709927AA27B078CE
S11306F0BB2354F40197A109B1098C6F9F6FAF6FAD
S1130700BF6F0196A11DB11D81309105A105B105F1
S113071091F02CF4892B8A2B8B2B59F0CACF823081
S11307209105A105B10549F00397A105B10539F07B
S1130730C0CFCD2FBECFCF2DBCCFC02FBACFC12FAE
S1130740B8CFDF91CF911F910F91FF9008950E9430
S113075042080E9445020E948F040E9418010E94D0
S1130760500608957F928F929F92AF92BF92CF923C
S1130770DF92EF92FF920F931F93CF93DF930E9428
S113078079084B015C01712C1FEFCBE7D2E00E948A
S11307901B01082F8F3F09F07DC00E944906882362
S11307A009F454C0888199810E948F09711005C091
S11307B08B3109F468C0912F0DC091E0791205C006
S11307C08B3509F463C0912F05C092E079121FC0E4
S11307D0982F812F933409F061C0712C81E00E941D
S11307E0340734C0712C80E00E9434072FC00330DA
S11307F011F0943421F483E00E94340727C00130BF
S113080011F0923429F482E00E9434071FC0712C45
S11308108F7D8035D9F40E9479086B017C01C8185A
S1130820D908EA08FB080E9449068823E1F3888175
S113083099810E948F098F7D8035A9F70E947908DC
S11308404B015C018C189D08AE08BF080E94790812
S11308506B017C010E94B602092E000CAA0BBB0B93
S1130860880D991DAA1DBB1DC816D906EA06FB06EC
S113087008F48DCF0E946E028823D9F00E94790873
S11308804B015C0184CF77247394E0CF6894772480
S113089071F8DCCF882309F4A1CF05C0913409F4A1
S11308A0A1CF712CA4CF823009F49DCF912F812F39
S11308B09ECFDF91CF911F910F91FF90EF90DF902A
S11308C0CF90BF90AF909F908F907F9008956EE0EF
S11308D08AE00E9429088AE990E09F938F930E94FE
S11308E0CD096FE08AE00E9429088CE790E09F938D
S11308F08F930E94CD090F900F900F900F900E943C
S11309001B018F3FE1F308950E9416030E94250303
S11309100E94A7030E94B2030E946704F9CF1092B9
S113092028011092290110922A0110922B01089596
S1130930409128015091290160912A0170912B0165
S1130940480F591F611D711D4093280150932901BF
S113095060932A0170932B010E94580860E082E39F
S11309600E94290880912B018F9380912A018F93F3
S1130970809129018F93809128018F9382ED90E0DB
S11309809F938F930E94CD090F900F900F900F901B
S11309900F900F9008956093060190933001809317
S11309A02F01109232011092310110922E011092F7
S11309B02D0108950F931F93CF93DF93CDB7DEB727
S11309C028970FB6F894DEBF0FBECDBFE09131017A
S11309D0F0913201309781F0149110FF06C010920B
S11309E032011092310100E06BC03196F093320174
S11309F0E093310100E064C0E0912D01F0912E01FB
S1130A00309709F449C0CF01019690932E01809349
S1130A102D01E081E1110AC010922E0110922D01E6
S1130A2080E180932C0100E010E04AC08FE98E0F32
S1130A308A3170F4F0E0EE0FFF1FE15DFF4F859106
S1130A409491909332018093310100E010E038C01A
S1130A508FEB8E0F8A3170F4F0E0EE0FFF1FE15937
S1130A60FF4F85919491909332018093310100E07E
S1130A7010E026C080ED8E0F8A3000F5F0E0EE0F16
S1130A80FF1FE358FF4F8591949190933201809317
S1130A90310100E010E014C080912F0190913001E9
S1130AA001E0009709F000E090932E0180932D015E
S1130AB01092300110922F0110E002C000E010E00B
S1130AC00E94F90220910601FE013896CE0101969A
S1130AD0112314F4208301C01082110F3197E817F9
S1130AE0F907B1F71982BE016F5F7F4F8FE00E9453
S1130AF0DC0280912C01882389F0815080932C01A1
S1130B00002311F0882311F090E003C091E001C0AC
S1130B1091E081E0992329F080E003C00023A1F350
S1130B20F7CF28960FB6F894DEBF0FBECDBFDF9186
S1130B30CF911F910F910895CF93C82F8A3019F444
S1130B408DE00E949C059FB7907802C0992329F1FB
S1130B50809168018F3FD1F3F894E091670181E0BF
S1130B608E0F80936701F0E0E759FE4FC0838091B8
S1130B7068018F5F80936801809167018F3F11F452
S1130B8010926701E1ECF0E0808180628083992318
S1130B9039F0789480E090E005C081E090E002C0F4
S1130BA080E090E0CF91089580917A028823E1F368
S1130BB02FB72078F8948091680230917A0290E0FF
S1130BC0831B91095AF4E091680280917A02F0E063
S1130BD0E81BF109E758FD4F80810AC0E0916802E3
S1130BE080917A02F0E0E81BF109E759FD4F80811A
S1130BF090917A02915090937A02222309F078948A
S1130C0090E00895109267011092680110926802B2
S1130C1010927A021092790240933301DC01CB01E5
S1130C20880F991FAA1FBB1F880F991FAA1FBB1FDC
S1130C309C01AD01220F331F441F551F60E072E178
S1130C408AE790E00E94AC08BA01A9014F5F5F4FA8
S1130C506F4F7F4FDB01CA011AF40196A11DB11D2C
S1130C60B595A7959795879501979093C50080931F
S1130C70C400E1ECF0E088E18083808180688083B7
S1130C80EBE7F2E087E091E09383828391838083B2
S1130C90089590917A0281E0911101C080E0089555
S1130CA01092680210927A0208951F920F920FB662
S1130CB00F9211242F938F939F93EF93FF9380911F
S1130CC06801882329F1809167012091680190E0EF
S1130CD0821B91095AF4E091670180916801F0E068
S1130CE0E81BF109E859FD4F90810AC0E0916701C2
S1130CF080916801F0E0E81BF109E759FE4F90810B
S1130D00809168018150809368019093C60005C06A
S1130D10E1ECF0E080818F7D8083FF91EF919F91E2
S1130D208F912F910F900FBE0F901F9018951F92C7
S1130D300F920FB60F9211242F933F934F935F930B
S1130D406F937F938F939F93AF93BF93CF93EF93BF
S1130D50FF93C091C60080913301882349F08091AC
S1130D6068018F3F29F060E070E08C2F0E949C05A1
S1130D7080917A02803120F081E08093790218C05A
S1130D80CD3009F4CAE0E091680281E08E0F8093CF
S1130D906802F0E0E759FD4FC08380917A028F5FCB
S1130DA080937A0280916802803111F41092680273
S1130DB0FF91EF91CF91BF91AF919F918F917F91CF
S1130DC06F915F914F913F912F910F900FBE0F90B4
S1130DD01F9018950F931F93CF9382E0809338014F
S1130DE010923601C1E0C093370161E081E00E94B6
S1130DF00F0309E311E0F801808361E082E00E94BF
S1130E000F03F8018183C0933501C0933401CF915E
S1130E101F910F910895E09137010E2E000CFF0BE6
S1130E20E75CFE4F80810895E09136010E2E000CA0
S1130E30FF0BE75CFE4F8081089590913601E92F06
S1130E40092E000CFF0BE75CFE4F80819F5F9132FF
S1130E5019F09093360102C0109236019091380136
S1130E60915090933801089590913501933019F47D
S1130E70813071F40895913019F4833049F4089560
S1130E80911103C0823021F40895923009F4811144
S1130E90809334010895909136013091370140E0F8
S1130EA00DC0E92F092E000CFF0BE75CFE4F2081DB
S1130EB0281789F09F5F91320CF0942F9313F1CF90
S1130EC0E32F330FFF0BE75CFE4F91E020812817DF
S1130ED019F090E001C091E0892F0895CF93DF933A
S1130EE080913801813208F07CC0E09137010E2EE8
S1130EF0000CFF0BE75CFE4F80810E940403D82F97
S1130F00C82FE09137010E2E000CFF0BE75CFE4F5B
S1130F1080810E940703682F90913401913059F029
S1130F2028F0923069F0933081F01BC0873091F043
S1130F3061E0680F16C0DF3079F0C1E0CD0F11C059
S1130F40882361F06FEF680F0CC0DD2349F0CFEF09
S1130F50CD0F07C060E005C0C0E003C067E001C07A
S1130F60CFE08C2F0E940F03C82F8091340180930F
S1130F7035018C2F0E944B07813051F4E0913701E9
S1130F800E2E000CFF0BE75CFE4F8081C8132BC0B4
S1130F9081E090E00E94980480E00E944B088091D8
S1130FA037018F5F813219F08093370102C01092AC
S1130FB03701E09137010E2E000CFF0BE75CFE4F6A
S1130FC0C083809138018F5F809338018C2F0E94F9
S1130FD0B701882351F080913801813240F083E0D9
S1130FE007C08DEF05C08EEF03C081E001C082E031
S1130FF0DF91CF91089594B1906B94B92C9A90E5B8
S11310009CBD883021F0803211F0823019F491E0D7
S11310109DBD01C01DBC803269F028F4883071F098
S1131020803161F00EC0803429F0803851F48CB5E1
S113103081608CBD8CB582608CBD03C08CB5816031
S11310408CBD2C9808958EBD0DB407FEFDCF8EB5D2
S11310500895282F082E000C330B3F938F93862F6F
S1131060062E000C990B9F936F938DEC91E09F9348
S11310708F930E94CD090F900F900F900F900F90B7
S11310800F90089588EC91E09F938F930E94CD096F
S11310900F900F9008951F928F9382EC91E09F938D
S11310A08F930E94CD090F900F900F900F90089589
S11310B08BEB91E09F938F930E94CD090F900F903B
S11310C0089510925A0110925B0110925C011092E3
S11310D05D0116BC8CE787BD82E084BD83E085BDDD
S11310E0EEE6F0E080818260808385B3827085BB08
S11310F008952FB7F89460915A0170915B01809123
S11311005C0190915D0122230CF4789408951F9260
S11311100F920FB60F9211248F939F93AF93BF93A7
S113112080915A0190915B01A0915C01B0915D01A5
S11311300196A11DB11D80935A0190935B01A09368
S11311405C01B0935D01BF91AF919F918F910F901E
S11311500FBE0F901F901895052E97FB1EF4009458
S11311600E94C30857FD07D00E94CB0807FC03D098
S11311704EF40C94C30850954095309521953F4FFB
S11311804F4F5F4F089590958095709561957F4F6F
S11311908F4F9F4F0895A1E21A2EAA1BBB1BFD017E
S11311A00DC0AA1FBB1FEE1FFF1FA217B307E40742
S11311B0F50720F0A21BB30BE40BF50B661F771F9A
S11311C0881F991F1A9469F760957095809590957A
S11311D09B01AC01BD01CF0108958F929F92AF9204
S11311E0BF92CF92DF92EF92FF92CF93DF93EC0105
S11311F0688179818A819B816115710581059105D9
S113120021F464E279ED8BE597E02DE133EF41E0E1
S113121050E00E94AC0849015A019B01AC01A7EAC5
S1131220B1E40E94840C6B017C01ACEEB4EFA50127
S113123094010E94920CDC01CB018C0D9D1DAE1D0E
S1131240BF1DB7FF03C00197A109B04888839983E4
S1131250AA83BB83BC01CD019F77DF91CF91FF901F
S1131260EF90DF90CF90BF90AF909F908F900895B4
S11312708F929F92AF92BF92CF92DF92EF92FF92A2
S1131280609100017091010180910201909103012C
S1131290611571058105910521F464E279ED8BE511
S11312A097E02DE133EF41E050E00E94AC084901A2
S11312B05A019B01AC01A7EAB1E40E94840C6B01C2
S11312C07C01ACEEB4EFA50194010E94920CDC0108
S11312D0CB018C0D9D1DAE1DBF1DB7FF03C0019733
S11312E0A109B0488093000190930101A0930201E9
S11312F0B0930301BC01CD019F77FF90EF90DF9085
S1131300CF90BF90AF909F908F900895609300010D
S11313107093010180930201909303010895CF9388
S1131320DF93EC012B8120FF33C026FF0AC02F7B03
S11313302B838E819F8101969F838E838A8190E087
S113134029C022FF0FC0E881F9818081082E000C9A
S1131350990B009719F420622B831AC03196F983F4
S1131360E8830EC0EA85FB85099597FF09C02B81A8
S1131370019611F080E201C080E1822B8B8308C0CA
S11313802E813F812F5F3F4F3F832E83992702C0D9
S11313908FEF9FEFDF91CF910895A0E0B0E0E3EDF0
S11313A0F9E00C94A50CAE01495F5F4FDA016D9131
S11313B07D91AD010BE712E0F80182819381DC019C
S11313C013962C911397286013962C930E94F3097B
S11313D0D8011296ED91FC9113972381277F2383E3
S11313E0E4E00C94C10CABE0B0E0E9EFF9E00C945C
S11313F0970C6C017B018A01FC01178216828381A0
S113140081FFCCC1CE0101963C01F6019381F70125
S113141093FD859193FF81917F01882309F4BAC1DB
S1131420853239F493FD859193FF81917F01853253
S113143029F4B60190E00E94EA0BE7CF912C212C0D
S1131440312CFFE1F315D8F08B3279F038F4803287
S113145079F08332A1F4232D20611DC08D3261F017
S1131460803369F4232D216016C0832D8260382EC9
S1131470E32DE4603E2E2AC0F32DF8601DC037FC36
S11314802DC020ED280F2A3040F08E32B9F436FCFE
S113149081C1232D2064322E19C036FE06C08AE095
S11314A0989E200D1124922E11C0EAE02E9E200D4C
S11314B01124222EF32DF0623F2E08C08C3621F425
S11314C0832D8068382E02C0883641F4F70193FDDD
S11314D0859193FF81917F018111B3CF982F9F7DD7
S11314E09554933028F40C5F1F4F9FE399830DC0EC
S11314F0833631F0833771F0833509F059C021C048
S1131500F801808189830E5F1F4F88248394912C76
S1131510530113C02801F2E04F0E511CF801A080C2
S1131520B18036FE03C0692D70E002C06FEF7FEF1B
S1131530C5010E94DF0B4C018201F32DFF773F2E82
S113154016C0280122E0420E511CF801A080B1808F
S113155036FE03C0692D70E002C06FEF7FEFC50156
S11315600E94D40B4C01F32DF0683F2E820133FC12
S11315701BC0822D90E088169906B0F4B60180E273
S113158090E00E94EA0B2A94F4CFF50137FC859190
S113159037FE81915F01B60190E00E94EA0B2110B1
S11315A02A9421E0821A91088114910471F7E8C009
S11315B0843611F0893641F5F80137FE07C06081A1
S11315C07181828193810C5F1F4F08C0608171819A
S11315D0072E000C880B990B0E5F1F4FF32DFF761F
S11315E03F2E97FF09C090958095709561957F4F28
S11315F08F4F9F4FF0683F2E2AE030E0A3010E94F6
S1131600260C882E861845C0853731F4232D2F7E6D
S1131610B22E2AE030E025C0932D997FB92E8F3663
S1131620C1F018F4883579F0B5C0803719F08837DF
S113163021F0B0C0E92FE061BE2EB4FE0DC0FB2D39
S1131640F460BF2E09C034FE0AC0292F2660B22ED2
S113165006C028E030E005C020E130E002C020E10F
S113166032E0F801B7FE07C0608171818281938105
S11316700C5F1F4F06C06081718180E090E00E5FB7
S11316801F4FA3010E94260C882E8618FB2DFF777E
S11316903F2E36FE0DC0232D2E7FA22E891458F422
S11316A034FE0BC032FC09C0832D8E7EA82E05C0EB
S11316B0B82CA32C03C0B82C01C0B92CA4FE0FC0B5
S11316C0FE01E80DF11D8081803321F49A2D997E6D
S11316D0A92E09C0A2FE06C0B394B39404C08A2DF7
S11316E0867809F0B394A3FC11C0A0FE06C0B2141E
S11316F088F4280C922C9B180EC0B21460F4B60126
S113170080E290E00E94EA0BB394F7CFB21418F48D
S11317102B1802C0982C212CA4FE10C0B60180E323
S113172090E00E94EA0BA2FE17C0A1FC03C088E768
S113173090E002C088E590E0B6010CC08A2D86785E
S113174059F0A1FE02C08BE201C080E2A7FC8DE249
S1131750B60190E00E94EA0B891438F4B60180E3E4
S113176090E00E94EA0B9A94F7CF8A94F301E80D73
S1131770F11D8081B60190E00E94EA0B8110F5CF43
S1131780222009F442CEB60180E290E00E94EA0BE6
S11317902A94F6CFF6018681978102C08FEF9FEFDE
S11317A02B96E2E10C94B30CFC010590615070405F
S11317B00110D8F7809590958E0F9F1F0895FC0116
S11317C06150704001900110D8F7809590958E0F6C
S11317D09F1F08950F931F93CF93DF93FB012381E2
S11317E021FD03C08FEF9FEF2CC022FF16C046815E
S11317F05781248135814217530744F4A081B18174
S11318009D012F5F3F4F318320838C932681378145
S11318102F5F3F4F3783268314C08B01EC01FB01FC
S11318200084F185E02D0995892BE1F6D8011696FF
S11318308D919C911797019617969C938E9316976A
S1131840CE01DF91CF911F910F910895FA01AA273C
S1131850283051F1203181F1E8946F936E7F6E5FEF
S11318607F4F8F4F9F4FAF4FB1E03ED0B4E03CD09D
S1131870670F781F891F9A1FA11D680F791F8A1F80
S1131880911DA11D6A0F711D811D911DA11D20D0E7
S113189009F468943F912AE0269F11243019305DA1
S11318A03193DEF6CF010895462F4770405D419392
S11318B0B3E00FD0C9F7F6CF462F4F70405D4A33DF
S11318C018F0495D31FD4052419302D0A9F7EACFA7
S11318D0B4E0A6959795879577956795BA95C9F7D6
S11318E000976105710508959B01AC010A2E0694C9
S11318F05795479537952795BA95C9F7620F731F82
S1131900841F951FA01D08950E94CE0CA59F900DC5
S1131910B49F900DA49F800D911D11240895B7FFCD
S11319200C94840C0E94840C821B930B08952F92B8
S11319303F924F925F926F927F928F929F92AF925B
S1131940BF92CF92DF92EF92FF920F931F93CF93A8
S1131950DF93CDB7DEB7CA1BDB0B0FB6F894DEBF3F
S11319600FBECDBF09942A88398848885F846E8465
S11319707D848C849B84AA84B984C884DF80EE80AF
S1131980FD800C811B81AA81B981CE0FD11D0FB6B8
S1131990F894DEBF0FBECDBFED010895A29FB00144
S11319A0B39FC001A39F700D811D1124911DB29F8F
S11119B0700D811D1124911D0895F894FFCF30
S11319BE0100000058020F00000003000000009C0C
S11119CE05D40500003433303531373139008B
S9030000FC
