S010000070726F6A656374322E73726563EB
S11300000C94EB000C9408010C9408010C94080166
S11300100C9408010C9448010C9408010C940801F8
S11300200C9408010C9408010C9408010C94080128
S11300300C9408010C9408010C9408010C94080118
S11300400C94DA0A0C9408010C9408010C9408012D
S11300500C94DF080C949D080C9408010C9408017E
S11300600C9408010C9408010C9408010C940801E8
S11300700C9408010C9408010C94080150726573E7
S113008073206120627574746F6E20746F207374B2
S113009061727420616761696E0047414D45204F6C
S11300A05645520043535345323031302F373230A6
S11300B03120536E616B652050726F6A65637420E2
S11300C06279205365616E204C696D00536E616BDB
S11300D0650053636F72653A20256C6400480145DE
S11300E00141013D013901350131012D012901256C
S11300F001B701B301AF01AB01A701A3019F019BAC
S1130100019801940190018C01870183017F017B97
S113011001760172016E016901650160015B01569E
S11301200151014C016492927D6C92926D809EA06B
S1130130C17C92924DE4A2A29D182848FF44929259
S11301406D468A926342FE037C92A27D868A92A2C5
S1130150C3E0100E10E1C6281028C7FC021C02FDE3
S1130160F8040204F9FC0202FD8080FE808164929E
S1130170924DFE9098677C828A7C03FE9090617C0D
S113018082827DFE2010FFFE403040FFFE0202030B
S1130190FE1028C7040202FD82FE83FE1010FF7CBD
S11301A082925DFE909081FE929283FE82827D7C9B
S11301B0828245FE92926D7E90907F1B5B3F32352A
S11301C06C001B5B25646D001B5B324A001B5B25C6
S11301D0643B2564480011241FBECFEFD8E0DEBF86
S11301E0CDBF11E0A0E0B1E0ECE1FFE102C0059079
S11301F00D92AC32B107D9F722E0ACE2B1E001C014
S11302001D92A039B207E1F70E94CC060C948C0F22
S11302100C940000E8E6F0E0808182608083D99A43
S1130220ECE6F0E080818F60808310922C010895C9
S113023010922C01089580912C0118163CF58091A0
S11302402D016FB7F89490912C019230B4F021E015
S113025030E091E0F901E35DFE4F4081F901E45D96
S1130260FE4F40839F5F292F30E040912C01042EE4
S1130270000C550B241735076CF390912C01915009
S113028090932C0166231CF4789408958FEF0895BD
S11302901F920F920FB60F9211242F933F934F93F7
S11302A05F936F937F938F939F93EF93FF9343B1E8
S11302B04F7080912C01883064F580E090E0642FC9
S11302C070E09B01082E02C0359527950A94E2F749
S11302D020FF1BC02091350130E0082E02C0359567
S11302E027950A94E2F720FD10C0E0912C0121E04B
S11302F02E0F20932C010E2E000CFF0BE35DFE4FFE
S1130300808320912C01283024F4019684309105B7
S1130310C1F640933501FF91EF919F918F917F91A9
S11303206F915F914F913F912F910F900FBE0F905E
S11303301F90189510926D01089530916D01131658
S113034084F490916E01891771F0EFE6F1E090E08A
S113035003C02191281749F09F5F3913FACF8FEF1B
S113036008958FEF089580E00895892F08950E94DD
S11303709D0191E08F3F09F490E0892F089591E069
S113038020916C01281390E0892F0895FF920F9318
S11303901F93CF93DF9380916D018830D4F500E0F3
S11303A010E0D0E0C0E002C00F5F1F4F2C2FCC0F35
S11303B0330B2D5F3F4F200F311F2F7030783323C5
S11303C034F421503109206F3F6F2F5F3F4F822F4C
S11303D0C22F6D2FDD0F770B6B5F7F4F67707078C7
S11303E0772334F461507109686F7F6F6F5F7F4FBB
S11303F0D62F0E945804F82E0336110561F00E948E
S113040096098111D1CF8F2D0E94B7018111CCCFD4
S113041004C088E00FC088E00DC080916D01E82F12
S1130420082E000CFF0BE259FE4FF0828F5F809381
S11304306D018F2DDF91CF911F910F91FF90089542
S11304401F93CF93DF930E948C0BEC010E948C0BC3
S1130450BC0167707078772334F461507109686F58
S11304607F6F6F5F7F4FCE018F709078992324F454
S11304700197806F9F6F01960E945804C82F13E65E
S11304801EC00E948C0BEC010E948C0BBC01677097
S11304907078772334F461507109686F7F6F6F5FF0
S11304A07F4FCE018F709078992324F40197806F49
S11304B09F6F01960E945804C82F115059F08C2F39
S11304C00E9496098111DDCF8C2F0E94B701811102
S11304D0D8CF02C088E003C0C0936C018C2FDF9199
S11304E0CF911F910895E82F880FFF0BE259FE4F1B
S11304F08081089580916C0108958823B4F020913F
S11305006D01821794F48F5F821764F4E82F082E2C
S1130510000CFF0BE259FE4F9081319790838F5F5F
S11305208217A4F3215020936D01089560E080E0C8
S11305300E94580480936C0108950F931F93CF93E6
S1130540DF93CEE6D1E088810E944D04082F182F56
S113055088810E945004D82FC82F0E948C0B83706E
S11305609078992324F401978C6F9F6F01968230C1
S1130570910509F11CF4019741F05EC083309105A7
S113058081F1049709F443C057C0C73071F080E08B
S11305900E949609813049F080E00E949D018111FA
S11305A004C080916C01811103C0CFEFCD0F44C012
S11305B0C1E0CD0F41C01F3071F080E00E94960968
S11305C0813049F080E00E949D01811104C0809136
S11305D06C01811103C01FEF100F2EC011E0100F2A
S11305E02BC0CC2371F080E00E949609813049F041
S11305F080E00E949D01811104C080916C018111F1
S113060003C0C1E0CD0F18C0CFEFCD0F15C011232B
S113061071F080E00E949609813049F080E00E94E8
S11306209D01811104C080916C01811103C011E00E
S1130630100F02C01FEF100F6C2F812F0E9458045F
S113064080936E0181E0DF91CF911F910F91089506
S11306501F93CF93DF93C82F162F0E945004D82FD7
S11306608C2F0E944D04412F6D2F0E940604DF91B0
S1130670CF911F910895CF93DF930E94490488E599
S113068092E090930901809308010E9432090E942C
S113069053096FE00E9428030E945C0960EF0E94E6
S11306A028030E949A01C3E00E94C601D82F0E9429
S11306B05204882321F063E38D2F0E942803C15044
S11306C099F7DF91CF9108951F93CF93DF9380E043
S11306D00E947302182F0E949D02C82F882384F061
S11306E080E00E947302D82FC13021F460E0812F92
S11306F00E94280363E38D2F0E94280381E001C038
S113070080E0DF91CF911F910895CF930E94200242
S1130710C82F0E945204882321F06CE38C2F0E947E
S1130720280381E0CF910895CF93DF930E947A024A
S1130730EC0160E080E00E94580490E0C817D907FB
S113074039F00E947A0260E00E9428030E94960217
S1130750DF91CF9108950F931F93CF93DF930E945E
S11307605309D82F0E94B909C82F88230CF43FC01D
S11307700E945309182F8EEF8C0F8230E8F4812FDA
S11307800E949D010E947D0283E090E00E94E006A9
S113079080910801909109010F979093090180932A
S11307A008010E94C601082F0E945204882321F0E8
S11307B063E3802F0E942803C43039F48AE090E078
S11307C00E94E0060E94940308C0CD7FC13029F442
S11307D00E94680960E00E94280360EF8D2F0E9448
S11307E028036FE0812F0E94280381E001C080E08C
S11307F0DF91CF911F910F910895809108019091FD
S11308000901089580E80E944E0A08951F93CF932A
S1130810DF938031B0F46830A0F4142FC62FD82FA2
S113082081E00E94760A6C2F677080E1689F9001D6
S113083011248D2F8F70822B0E94760A812F0E94A3
S1130840760ADF91CF911F9108950F931F93CF9351
S1130850DF93803190F48B01C82F83E00E94760AE5
S11308608C2F8F700E94760AE801085F1F4F8991D0
S11308700E94760AC017D107D1F7DF91CF911F915B
S11308800F91089584E00E94760A82E00E94760A1D
S113089008958FE00E94760A089582958F700895D6
S11308A08F70089583FB882780F991E08927089544
S11308B020E1829FC00111246770862B08958FEF79
S11308C087B981E081B908950E9402040E940A0157
S11308D040E060E07BE480E090E00E944A080E94EF
S11308E0B40A0E945F0478940895FF920F931F93B3
S11308F0CF93DF9380E00E949E0A0E94950A0E9493
S1130900AB0A63E083E00E947C0A8CEC90E09F9346
S11309108F930E947C0C65E083E00E947C0A80E255
S11309200E949E0A84EA90E09F938F930E947C0C1D
S113093085E20E949E0A0E9449040F900F900F9036
S11309400F90CFE00F2EFFE0FF2EF02D0FEF10EFF2
S1130950D5E16C2F83E291E00E9413070DC02FE7CD
S11309608CE293E0215080409040E1F700C0000009
S11309700E941B018F3FA9F50E9422078111EFCF2E
S11309800E94E70BDC01CB0183709927AA27B0787A
S1130990BB2354F40197A109B1098C6F9F6FAF6F0A
S11309A0BF6F0196A11DB11D81309105A105B1054F
S11309B091F02CF4892B8A2B8B2B59F0CACF8230DF
S11309C09105A105B10549F00397A105B10539F0D9
S11309D0C0CFCD2FBECFCF2DBCCFC02FBACFC12F0C
S11309E0B8CFDF91CF911F910F91FF9008950E948E
S11309F0950A0E943B030E94D7060E9418010E9498
S1130A00980808952F923F924F925F926F927F922F
S1130A108F929F92AF92BF92CF92DF92EF92FF920A
S1130A200F931F93CF93DF9300D000D000D0CDB7A6
S1130A30DEB70E94CC0A2B013C010E94CC0A6B0158
S1130A407C010E94CC0A69837A838B839C831D82F8
S1130A500E941B018E838F3F31F50E9491088823E9
S1130A6029F1EAE8F2E0808191810E943E0C082F8E
S1130A70FD81F11107C08B31E1F421E02D831FEFDB
S1130A800FEF1EC03D81313039F48B35A1F442E0C3
S1130A904D831FEF0FEF14C05D81523079F4182F8E
S1130AA01D820FEF0DC01FEF0FEF0AC01FEF0FEFF6
S1130AB007C01FEF05C01D821FEF02C01D821FEF7C
S1130AC00E94CC0A60FD16C00E94650912B8EDECC4
S1130AD08E9F912D1124969596959695990F292F71
S1130AE0220F220F920F891BE82FF0E0E65FFE4FE2
S1130AF0808188B90E94CC0A25E030E040E050E0D3
S1130B000E94FF0A672B682B692BA1F40E946509D8
S1130B108A3080F00E946509F1E0F2B92DEC829FE1
S1130B20E12D1124E695E695E695F0E0E65FFE4FAB
S1130B30808188B93E81332311F0133421F481E09C
S1130B400E947F0977C04E81423011F0113421F4A4
S1130B5080E00E947F096EC05E81533011F014342E
S1130B6021F483E00E947F0965C08E81813011F0F9
S1130B70123421F482E00E947F095CC00F7D0035AD
S1130B8009F058C00E94CC0A4B015C0184189508F6
S1130B90A608B7080E94CC0A60FD16C00E94650929
S1130BA012B8EDEC8E9F912D1124969596959695FD
S1130BB0990F292F220F220F920F891BE82FF0E0A3
S1130BC0E65FFE4F808188B90E94CC0A25E030E0C0
S1130BD040E050E00E94FF0A672B682B692BA1F4C8
S1130BE00E9465098A3080F00E946509F1E0F2B93B
S1130BF02DEC829FE12D1124E695E695E695F0E033
S1130C00E65FFE4F808188B90E949108882311F223
S1130C10EAE8F2E0808191810E943E0C8F7D80356C
S1130C2009F0B8CF0E94CC0A2B013C01481859089E
S1130C306A087B080E94CC0A4B015C010E94FD03F8
S1130C40092E000CAA0BBB0B840D951DA61DB71D08
S1130C5088169906AA06BB0648F00E94AB038823AF
S1130C6009F464C00E94CC0A2B013C010E94CC0A06
S1130C70970186010856154C2F4F3F4F6017710797
S1130C8082079307D0F00E948503882309F44EC09D
S1130C900E94CC0A6B017C010E94CC0A9701860158
S1130CA008571C4E2F4F3F4F601771078207930759
S1130CB0A0F422242394312C14C00E94CC0A97015E
S1130CC0860108571C4E2F4F3F4F6017710782074C
S1130CD0930738F02114310421F00E949403212C4D
S1130CE0312C0E94CC0A4B015C010E94FD03880F49
S1130CF0991F092E000CAA0BBB0B29813A814B8149
S1130D005C81820F931FA41FB51F88169906AA063B
S1130D10BB0608F49DCE0E946403892B39F00E941F
S1130D20CC0A69837A838B839C8392CE26960FB6F2
S1130D30F894DEBF0FBECDBFDF91CF911F910F910D
S1130D40FF90EF90DF90CF90BF90AF909F908F90E7
S1130D507F906F905F904F903F902F9008956EE03A
S1130D608AE00E947C0A8AE990E09F938F930E9414
S1130D707C0C6FE08AE00E947C0A8CE790E09F93F1
S1130D808F930E947C0C0F900F900F900F900E94F5
S1130D901B018F3FE1F308950E9464040E947504CF
S1130DA00E94F7040E9402050E94AF06F9CF109238
S1130DB036011092370110923801109239010895CA
S1130DC04091360150913701609138017091390199
S1130DD0480F591F611D711D40933601509337010F
S1130DE060933801709339010E94AB0A60E082E39A
S1130DF00E947C0A809139018F93809138018F93EE
S1130E00809137018F93809136018F9382ED90E02A
S1130E109F938F930E947C0C0F900F900F900F90D4
S1130E200F900F9008956093140190933E01809366
S1130E303D011092400110923F0110923C0110922A
S1130E403B0108950F931F93CF93DF93CDB7DEB784
S1130E5028970FB6F894DEBF0FBECDBFE0913F01D7
S1130E60F0914001309781F0149110FF06C0109268
S1130E70400110923F0100E06BC03196F0934001B5
S1130E80E0933F0100E064C0E0913B01F0913C013C
S1130E90309709F449C0CF01019690933C018093A7
S1130EA03B01E081E1110AC010923C0110923B0128
S1130EB080E180933A0100E010E04AC08FE98E0F90
S1130EC08A3170F4F0E0EE0FFF1FE15DFF4F859172
S1130ED094919093400180933F0100E010E038C06A
S1130EE08FEB8E0F8A3170F4F0E0EE0FFF1FE159A3
S1130EF0FF4F859194919093400180933F0100E0CE
S1130F0010E026C080ED8E0F8A3000F5F0E0EE0F81
S1130F10FF1FE358FF4F8591949190934001809374
S1130F203F0100E010E014C080913D0190913E012A
S1130F3001E0009709F000E090933C0180933B01AD
S1130F4010923E0110923D0110E002C000E010E05A
S1130F500E94420420911401FE013896CE010196AC
S1130F60112314F4208301C01082110F3197E81764
S1130F70F907B1F71982BE016F5F7F4F8FE00E94BE
S1130F80250480913A01882389F0815080933A01A5
S1130F90002311F0882311F090E003C091E001C018
S1130FA091E081E0992329F080E003C00023A1F3BC
S1130FB0F7CF28960FB6F894DEBF0FBECDBFDF91F2
S1130FC0CF911F910F910895CF93C82F8A3019F4B0
S1130FD08DE00E94E4079FB7907802C0992329F11D
S1130FE0809177018F3FD1F3F894E091760181E00D
S1130FF08E0F80937601F0E0E858FE4FC083809115
S113100077018F5F80937701809176018F3F11F490
S113101010927601E1ECF0E0808180628083992374
S113102039F0789480E090E005C081E090E002C05F
S113103080E090E0CF910895809189028823E1F3C4
S11310402FB72078F894809177023091890290E04C
S1131050831B91095AF4E091770280918902F0E0B0
S1131060E81BF109E857FD4F80810AC0E09177023F
S113107080918902F0E0E81BF109E858FD4F808176
S113108090918902915090938902222309F07894D7
S113109090E00895109276011092770110927702F1
S11310A0109289021092880240934101DC01CB0125
S11310B0880F991FAA1FBB1F880F991FAA1FBB1F48
S11310C09C01AD01220F331F441F551F60E072E1E4
S11310D08AE790E00E94210BBA01A9014F5F5F4F9C
S11310E06F4F7F4FDB01CA011AF40196A11DB11D98
S11310F0B595A7959795879501979093C50080938B
S1131100C400E1ECF0E088E1808380818068808322
S1131110EAE8F2E085E191E093838283918380831E
S113112008959091890281E0911101C080E00895B1
S1131130109277021092890208951F920F920FB6AF
S11311400F9211242F938F939F93EF93FF9380918A
S11311507701882329F1809176012091770190E02D
S1131160821B91095AF4E091760180917701F0E0B5
S1131170E81BF109E958FD4F90810AC0E09176011E
S113118080917701F0E0E81BF109E858FE4F908167
S1131190809177018150809377019093C60005C0B8
S11311A0E1ECF0E080818F7D8083FF91EF919F914E
S11311B08F912F910F900FBE0F901F9018951F9233
S11311C00F920FB60F9211242F933F934F935F9377
S11311D06F937F938F939F93AF93BF93CF93EF932B
S11311E0FF93C091C60080914101882349F080910A
S11311F077018F3F29F060E070E08C2F0E94E407B4
S113120080918902803120F081E08093880218C0A7
S1131210CD3009F4CAE0E091770281E08E0F80932B
S11312207702F0E0E858FD4FC083809189028F5F18
S11312308093890280917702803111F410927702B1
S1131240FF91EF91CF91BF91AF919F918F917F913A
S11312506F915F914F913F912F910F900FBE0F901F
S11312601F9018950F931F93CF9382E080934601AC
S113127010924401C1E0C093450161E081E00E9405
S1131280580407E411E0F801808361E082E00E94E1
S11312905804F8018183C0934301C0934201CF9164
S11312A01F910F910895E09145010E2E000CFF0B44
S11312B0E95BFE4F80810895E09144010E2E000CFD
S11312C0FF0BE95BFE4F80810895809146010895EC
S11312D090914401E92F092E000CFF0BE95BFE4FAE
S11312E080819F5F913219F09093440102C0109263
S11312F04401909146019150909346010895909134
S11313004301933019F4813071F40895913019F444
S1131310833049F40895911103C0823021F4089573
S1131320923009F48111809342010895909144010F
S11313303091450140E00DC0E92F092E000CFF0B50
S1131340E95BFE4F2081281789F09F5F91320CF0F2
S1131350942F9313F1CFE32F330FFF0BE95BFE4F71
S113136091E02081281719F090E001C091E0892FC5
S11313700895CF93DF9380914601813208F084C0B1
S1131380E09145010E2E000CFF0BE95BFE4F8081BE
S11313900E944D04D82FC82FE09145010E2E000C59
S11313A0FF0BE95BFE4F80810E945004682F9091EF
S11313B04201913059F028F0923069F0933081F075
S11313C01BC0873091F061E0680F16C0DF3079F000
S11313D0C1E0CD0F11C0882361F06FEF680F0CC01E
S11313E0DD2349F0CFEFCD0F07C060E005C0C0E0BA
S11313F003C067E001C0CFE08C2F0E945804C82FBF
S113140080914201809343018C2F0E949609813080
S113141051F4E09145010E2E000CFF0BE95BFE4FE9
S11314208081C81333C081E090E00E94E00680E030
S11314300E949E0A809145018F5F813219F080934A
S1131440450102C010924501E09145010E2E000CA9
S1131450FF0BE95BFE4FC083809146018F5F809351
S113146046018C2F0E94B701882331F080914601F8
S1131470813270F083E00FC08C2F90E00E94BF0196
S1131480892B41F481E007C08DEF05C08EEF03C0C6
S113149082E001C084E0DF91CF91089594B1906B14
S11314A094B92C9A90E59CBD883021F0803211F0DB
S11314B0823019F491E09DBD01C01DBC803269F0F9
S11314C028F4883071F0803161F00EC0803429F046
S11314D0803851F48CB581608CBD8CB582608CBD34
S11314E003C08CB581608CBD2C9808958EBD0DB45D
S11314F007FEFDCF8EB50895282F082E000C330B60
S11315003F938F93862F062E000C990B9F936F9316
S11315108DEC91E09F938F930E947C0C0F900F9021
S11315200F900F900F900F90089588EC91E09F9387
S11315308F930E947C0C0F900F9008951F928F93AD
S113154082EC91E09F938F930E947C0C0F900F90FC
S11315500F900F9008958BEB91E09F938F930E94CF
S11315607C0C0F900F9008951092680110926901FD
S113157010926A0110926B0116BC8CE787BD82E061
S113158084BD83E085BDEEE6F0E0808182608083E7
S113159085B3827085BB08952FB7F8946091680174
S11315A07091690180916A0190916B0122230CF47E
S11315B0789408951F920F920FB60F9211248F936F
S11315C09F93AF93BF938091680190916901A0911B
S11315D06A01B0916B010196A11DB11D8093680150
S11315E090936901A0936A01B0936B01BF91AF918D
S11315F09F918F910F900FBE0F901F901895A1E2AD
S11316001A2EAA1BBB1BFD010DC0AA1FBB1FEE1F78
S1131610FF1FA217B307E407F50720F0A21BB30BC3
S1131620E40BF50B661F771F881F991F1A9469F73F
S113163060957095809590959B01AC01BD01CF019B
S11316400895052E97FB1EF400940E94380B57FD55
S113165007D00E94FF0A07FC03D04EF40C94380B09
S113166050954095309521953F4F4F4F5F4F0895CA
S113167090958095709561957F4F8F4F9F4F0895FA
S11316808F929F92AF92BF92CF92DF92EF92FF928E
S1131690CF93DF93EC01688179818A819B81611505
S11316A071058105910521F464E279ED8BE597E0FC
S11316B02DE133EF41E050E00E94210B49015A0132
S11316C09B01AC01A7EAB1E40E94330F6B017C01DA
S11316D0ACEEB4EFA50194010E94410FDC01CB01F3
S11316E08C0D9D1DAE1DBF1DB7FF03C00197A10941
S11316F0B04888839983AA83BB839F77DF91CF9176
S1131700FF90EF90DF90CF90BF90AF909F908F901D
S113171008950E94400B089580E091E00E94400BE0
S11317200895A0E0B0E08093000190930101A0939C
S11317300201B093030108958F929F92AF92BF92DA
S1131740CF92DF92EF92FF92CF93DF93EC01688107
S113175079818A819B81611571058105910521F447
S113176064E279ED8BE597E02DE133EF41E050E061
S11317700E94210B49015A019B01AC01A7EAB1E483
S11317800E94330F6B017C01ACEEB4EFA501940110
S11317900E94410FDC01CB018C0D9D1DAE1DBF1DB0
S11317A0B7FF03C00197A109B04888839983AA832E
S11317B0BB83BC01CD019F77DF91CF91FF90EF9068
S11317C0DF90CF90BF90AF909F908F9008958F92AD
S11317D09F92AF92BF92CF92DF92EF92FF9260916D
S11317E00401709105018091060190910701611532
S11317F071058105910521F464E279ED8BE597E0AB
S11318002DE133EF41E050E00E94210B49015A01E0
S11318109B01AC01A7EAB1E40E94330F6B017C0188
S1131820ACEEB4EFA50194010E94410FDC01CB01A1
S11318308C0D9D1DAE1DBF1DB7FF03C00197A109EF
S1131840B0488093040190930501A0930601B093DE
S11318500701BC01CD019F77FF90EF90DF90CF90FF
S1131860BF90AF909F908F90089560930401709300
S1131870050180930601909307010895CF93DF93A8
S1131880EC012B8120FF33C026FF0AC02F7B2B8362
S11318908E819F8101969F838E838A8190E029C0E7
S11318A022FF0FC0E881F9818081082E000C990B7A
S11318B0009719F420622B831AC03196F983E883C8
S11318C00EC0EA85FB85099597FF09C02B81019617
S11318D011F080E201C080E1822B8B8308C02E814D
S11318E03F812F5F3F4F3F832E83992702C08FEFA5
S11318F09FEFDF91CF910895A0E0B0E0E2E8FCE033
S11319000C94540FAE01495F5F4FDA016D917D91E4
S1131910AD010AE812E0F80182819381DC0113969B
S11319202C911397286013962C930E94A20CD80133
S11319301296ED91FC9113972381277F2383E4E092
S11319400C94700FABE0B0E0E8EAFCE00C94460FB6
S11319506C017B018A01FC0117821682838181FF5D
S1131960CCC1CE0101963C01F6019381F70193FDB0
S1131970859193FF81917F01882309F4BAC185324F
S113198039F493FD859193FF81917F01853229F488
S1131990B60190E00E94990EE7CF912C212C312CB6
S11319A0FFE1F315D8F08B3279F038F4803279F016
S11319B08332A1F4232D20611DC08D3261F0803368
S11319C069F4232D216016C0832D8260382EE32D07
S11319D0E4603E2E2AC0F32DF8601DC037FC2DC0F4
S11319E020ED280F2A3040F08E32B9F436FC81C144
S11319F0232D2064322E19C036FE06C08AE0989E3C
S1131A00200D1124922E11C0EAE02E9E200D1124E7
S1131A10222EF32DF0623F2E08C08C3621F4832D44
S1131A208068382E02C0883641F4F70193FD859111
S1131A3093FF81917F018111B3CF982F9F7D95549E
S1131A40933028F40C5F1F4F9FE399830DC08336B6
S1131A5031F0833771F0833509F059C021C0F801A2
S1131A60808189830E5F1F4F88248394912C5301B6
S1131A7013C02801F2E04F0E511CF801A080B18080
S1131A8036FE03C0692D70E002C06FEF7FEFC50121
S1131A900E948E0E4C018201F32DFF773F2E16C05B
S1131AA0280122E0420E511CF801A080B18036FECC
S1131AB003C0692D70E002C06FEF7FEFC5010E9483
S1131AC0830E4C01F32DF0683F2E820133FC1BC0C2
S1131AD0822D90E088169906B0F4B60180E290E079
S1131AE00E94990E2A94F4CFF50137FC859137FEB4
S1131AF081915F01B60190E00E94990E21102A9411
S1131B0021E0821A91088114910471F7E8C08436A7
S1131B1011F0893641F5F80137FE07C06081718103
S1131B20828193810C5F1F4F08C060817181072EF1
S1131B30000C880B990B0E5F1F4FF32DFF763F2E81
S1131B4097FF09C090958095709561957F4F8F4F51
S1131B509F4FF0683F2E2AE030E0A3010E94D50E8B
S1131B60882E861845C0853731F4232D2F7EB22E5A
S1131B702AE030E025C0932D997FB92E8F36C1F02D
S1131B8018F4883579F0B5C0803719F0883721F01A
S1131B90B0C0E92FE061BE2EB4FE0DC0FB2DF46091
S1131BA0BF2E09C034FE0AC0292F2660B22E06C0FB
S1131BB028E030E005C020E130E002C020E132E05E
S1131BC0F801B7FE07C060817181828193810C5F47
S1131BD01F4F06C06081718180E090E00E5F1F4F4F
S1131BE0A3010E94D50E882E8618FB2DFF773F2E69
S1131BF036FE0DC0232D2E7FA22E891458F434FEF8
S1131C000BC032FC09C0832D8E7EA82E05C0B82CD3
S1131C10A32C03C0B82C01C0B92CA4FE0FC0FE0134
S1131C20E80DF11D8081803321F49A2D997EA92E2F
S1131C3009C0A2FE06C0B394B39404C08A2D86786A
S1131C4009F0B394A3FC11C0A0FE06C0B21488F43A
S1131C50280C922C9B180EC0B21460F4B60180E2DA
S1131C6090E00E94990EB394F7CFB21418F42B1895
S1131C7002C0982C212CA4FE10C0B60180E390E091
S1131C800E94990EA2FE17C0A1FC03C088E790E051
S1131C9002C088E590E0B6010CC08A2D867859F020
S1131CA0A1FE02C08BE201C080E2A7FC8DE2B60176
S1131CB090E00E94990E891438F4B60180E390E014
S1131CC00E94990E9A94F7CF8A94F301E80DF11DBE
S1131CD08081B60190E00E94990E8110F5CF2220F8
S1131CE009F442CEB60180E290E00E94990E2A9453
S1131CF0F6CFF6018681978102C08FEF9FEF2B9676
S1131D00E2E10C94620FFC010590615070400110F7
S1131D10D8F7809590958E0F9F1F0895FC01615010
S1131D20704001900110D8F7809590958E0F9F1FF9
S1131D3008950F931F93CF93DF93FB01238121FD1C
S1131D4003C08FEF9FEF2CC022FF16C0468157813E
S1131D50248135814217530744F4A081B1819D0148
S1131D602F5F3F4F318320838C93268137812F5FF0
S1131D703F4F3783268314C08B01EC01FB010084A1
S1131D80F185E02D0995892BE1F6D80116968D9100
S1131D909C911797019617969C938E931697CE0154
S1131DA0DF91CF911F910F910895FA01AA2728304E
S1131DB051F1203181F1E8946F936E7F6E5F7F4F14
S1131DC08F4F9F4FAF4FB1E03ED0B4E03CD0670F90
S1131DD0781F891F9A1FA11D680F791F8A1F911DE3
S1131DE0A11D6A0F711D811D911DA11D20D009F433
S1131DF068943F912AE0269F11243019305D319375
S1131E00DEF6CF010895462F4770405D4193B3E05D
S1131E100FD0C9F7F6CF462F4F70405D4A3318F004
S1131E20495D31FD4052419302D0A9F7EACFB4E0B5
S1131E30A6959795879577956795BA95C9F700976D
S1131E406105710508959B01AC010A2E069457950E
S1131E50479537952795BA95C9F7620F731F841F65
S1131E60951FA01D08950E947D0FA59F900DB49FFE
S1131E70900DA49F800D911D11240895B7FF0C941B
S1131E80330F0E94330F821B930B08952F923F92BE
S1131E904F925F926F927F928F929F92AF92BF9276
S1131EA0CF92DF92EF92FF920F931F93CF93DF9322
S1131EB0CDB7DEB7CA1BDB0B0FB6F894DEBF0FBE7F
S1131EC0CDBF09942A88398848885F846E847D84CC
S1131ED08C849B84AA84B984C884DF80EE80FD80CE
S1131EE00C811B81AA81B981CE0FD11D0FB6F89444
S1131EF0DEBF0FBECDBFED010895A29FB001B39F19
S1131F00C001A39F700D811D1124911DB29F700DFE
S10F1F10811D1124911D0895F894FFCF49
S1131F1C010000000100000058023F065B4F666D93
S1131F2C7D077F6F0F0000000300000000E4071C16
S10F1F3C080000343330353137313900EF
S9030000FC
