:100000000C9405020C9422020C9422020C942202FD
:100010000C9422020C9462020C9422020C94220290
:100020000C9422020C9422020C9422020C942202C0
:100030000C9422020C9422020C9422020C942202B0
:100040000C94EC0C0C9422020C9422020C942202CC
:100050000C94E50A0C94A30A0C9422020C9422023C
:100060000C9422020C9422020C9422020C94220280
:100070000C9422020C9422020C942202507265739A
:1000800073206120627574746F6E20746F207374B6
:1000900061727420616761696E00596F7572204EDC
:1000A000616D653A20002A2A2A2A2A2A2A2A2A2A1F
:1000B0002A2A2A2A2A2A2A2A2A2A2A2A2A2A2A2AA0
:1000C0002A2A2A2A2A2A0A002A2020596F75206102
:1000D0007265206F6E20746865206C65616465725E
:1000E00020626F6172642E2A0A002A2020436F6EFC
:1000F00067726174756C6174696F6E732120202062
:100100002020202020202020202A0A002A2A2A2AF3
:100110002A2A2A2A2A2A2A2A2A2A2A2A2A2A2A2A3F
:100120002A2A2A2A2A2A2A2A2A2A2A2A0A000A00C3
:1001300047414D45204F5645520A004353534532DF
:100140003031302F3732303120536E616B652050A3
:10015000726F6A656374206279205365616E204C0A
:10016000696D00536E616B650057616974696E67F4
:1001700020666F7220454550524F4D20746F2062AB
:1001800065636F6D652072656164792E2E2E0A009D
:100190002A2A2A2A2A2A2A2A2A2A2A2A2A2A2A2ABF
:1001A0002A2A2A2A2A2A2A2A2A2A2A2A2A2A2A2AAF
:1001B0002A2A2A2A2A2A2A2A2A2A2A0A002A2020FD
:1001C000204669667468203A20202573202C20532D
:1001D000636F72653A2025750A002A202020466F39
:1001E000757274683A20202573202C2053636F7237
:1001F000653A2025750A002A202020546869726417
:10020000203A20202573202C2053636F72653A20FA
:1002100025750A002A2020205365636F6E643A20FA
:10022000202573202C2053636F72653A2025750AB0
:10023000002A2020204669727374203A20202573FA
:10024000202C2053636F72653A2025750A002A2AF4
:100250002A2A2A2A2A2A2A2A2A2A2A2A2A2A2A2AFE
:100260002A2A2A2A2A2A2A2A2A2A2A2A2A2A2A2AEE
:100270002A2A2A2A2A2A2A2A2A0A002A2020202050
:1002800020202020202020204F7572204C656164A2
:10029000657220426F61726420202020202020207F
:1002A00020202020202A0A002A2A2A2A2A2A2A2A2A
:1002B0002A2A2A2A2A2A2A2A2A2A2A2A2A2A2A2A9E
:1002C0002A2A2A2A2A2A2A2A2A2A2A2A2A2A2A2A8E
:1002D0002A2A2A0A000A0057616974696E67206633
:1002E0006F7220454550524F4D20746F20626563F8
:1002F0006F6D652072656164792E2E2E0A0053633E
:100300006F72653A20256C6400740371036D036994
:1003100003650361035D03590355035103E303DFE1
:1003200003DB03D703D303CF03CB03C703C403C04B
:1003300003BC03B803B303AF03AB03A703A2039E3D
:10034000039A03950391038C03870382037D03784B
:10035000036492927D6C92926D809EA0C17C929279
:100360004DE4A2A29D182848FF4492926D468A92BD
:100370006342FE037C92A27D868A92A2C3E0100EA5
:1003800010E1C6281028C7FC021C02FDF804020474
:10039000F9FC0202FD8080FE80816492924DFE9005
:1003A00098677C828A7C03FE9090617C82827DFECD
:1003B0002010FFFE403040FFFE020203FE1028C75F
:1003C000040202FD82FE83FE1010FF7C82925DFE1D
:1003D000909081FE929283FE82827D7C828245FE95
:1003E00092926D7E90907F1B5B3F323568001B5B65
:1003F0003F32356C001B5B25646D001B5B324A008D
:100400001B5B25643B256448000011241FBECFEF11
:10041000D8E0DEBFCDBF11E0A0E0B1E0ECE6F3E252
:1004200002C005900D92AE35B107D9F722E0AEE5D6
:10043000B1E001C01D92A23CB207E1F70E94DF07C4
:100440000C94B4110C940000E8E6F0E08081826026
:100450008083D99AECE6F0E080818F6080831092EF
:100460005E01089510925E01089580915E01181654
:100470003CF580915F016FB7F89490915E019230E6
:10048000B4F021E030E091E0F901E15AFE4F408103
:10049000F901E25AFE4F40839F5F292F30E04091DF
:1004A0005E01042E000C550B241735076CF3909158
:1004B0005E01915090935E0166231CF47894089538
:1004C0008FEF08951F920F920FB60F9211242F9362
:1004D0003F934F935F936F937F938F939F93EF938C
:1004E000FF9343B14F7080915E01883064F580E0E6
:1004F00090E0642F70E09B01082E02C0359527958F
:100500000A94E2F720FF1BC02091670130E0082E1B
:1005100002C0359527950A94E2F720FD10C0E091BE
:100520005E0121E02E0F20935E010E2E000CFF0BCA
:10053000E15AFE4F808320915E01283024F4019619
:1005400084309105C1F640936701FF91EF919F912F
:100550008F917F916F915F914F913F912F910F906C
:100560000FBE0F901F90189510929F010895309123
:100570009F01131684F49091A001891771F0E1EAAC
:10058000F1E090E003C02191281749F09F5F3913F3
:10059000FACF8FEF08958FEF089580E00895892FA7
:1005A00008950E94B70291E08F3F09F490E0892FEF
:1005B000089591E020919E01281390E0892F0895DD
:1005C000FF920F931F93CF93DF9380919F01883009
:1005D000D4F500E010E0D0E0C0E002C00F5F1F4F94
:1005E0002C2FCC0F330B2D5F3F4F200F311F2F705F
:1005F0003078332334F421503109206F3F6F2F5F5F
:100600003F4F822FC22F6D2FDD0F770B6B5F7F4F18
:1006100067707078772334F461507109686F7F6F69
:100620006F5F7F4FD62F0E943505F82E03361105D8
:1006300061F00E94A00B8111D1CF8F2D0E94D102B9
:100640008111CCCF04C088E00FC088E00DC080913C
:100650009F01E82F082E000CFF0BE056FE4FF082A2
:100660008F5F80939F018F2DDF91CF911F910F910D
:10067000FF9008951F93CF93DF930E949E0DEC018E
:100680000E949E0DBC0167707078772334F461502E
:100690007109686F7F6F6F5F7F4FCE018F709078A9
:1006A000992324F40197806F9F6F01960E9435056E
:1006B000C82F13E61EC00E949E0DEC010E949E0DE5
:1006C000BC0167707078772334F461507109686FEA
:1006D0007F6F6F5F7F4FCE018F709078992324F4E6
:1006E0000197806F9F6F01960E943505C82F1150AA
:1006F00059F08C2F0E94A00B8111DDCF8C2F0E940E
:10070000D1028111D8CF02C088E003C0C0939E01FE
:100710008C2FDF91CF911F910895E82F880FFF0B49
:10072000E056FE4F8081089580919E0108958823B0
:10073000B4F020919F01821794F48F5F821764F4C4
:10074000E82F082E000CFF0BE056FE4F90813197EA
:1007500090838F5F8217A4F3215020939F01089507
:100760006FEF8FEF0E94350580939E0108950F93E0
:100770001F93CF93DF93C0EAD1E088810E942A05BE
:10078000082F182F88810E942D05D82FC82F0E946E
:100790009E0D83709078992324F401978C6F9F6F3E
:1007A00001968230910591F01CF4019739F025C033
:1007B0008330910599F00497C9F01FC0C73019F430
:1007C000CFEFCD0F1AC0C1E0CD0F17C01F3019F405
:1007D0001FEF100F12C011E0100F0FC0C11103C0A6
:1007E000C1E0CD0F0AC0CFEFCD0F07C0111103C07C
:1007F00011E0100F02C01FEF100F6C2F812F0E940D
:1008000035058093A00181E0DF91CF911F910F9179
:1008100008951F93CF93DF93C82F162F0E942D05A5
:10082000D82F8C2F0E942A05412F6D2F0E94E304A0
:10083000DF91CF911F910895CF93DF930E942605FA
:1008400088E592E090930901809308010E943C0B97
:100850000E945D0B6FE00E9409040E94660B60EF2E
:100860000E9409040E94B402C3E00E94E002D82F53
:100870000E942F05882321F063E38D2F0E94090435
:10088000C15099F7DF91CF9108951F93CF93DF93D4
:1008900080E00E948D03182F0E94B703C82F882381
:1008A00084F080E00E948D03D82FC13021F460E0F5
:1008B000812F0E94090463E38D2F0E94090481E0C7
:1008C00001C080E0DF91CF911F910895CF930E94E6
:1008D0003A03C82F0E942F05882321F06CE38C2F48
:1008E0000E94090481E0CF910895CF930E94940360
:1008F000C82F6FEF8FEF0E943505C81739F00E949F
:10090000940360E00E9409040E94B003CF9108950F
:100910000F931F93CF93DF930E945D0BD82F0E94FC
:10092000C30BC82F88230CF43FC00E945D0B182F07
:100930008EEF8C0F8230E8F4812F0E94B7020E9464
:10094000970383E090E00E94F30780910801909163
:1009500009010F9790930901809308010E94E0021A
:10096000082F0E942F05882321F063E3802F0E9427
:100970000904C43039F48AE090E00E94F3070E9431
:10098000750408C0CD7FC13029F40E94720B60E06D
:100990000E94090460EF8D2F0E9409046FE0812FEF
:1009A0000E94090481E001C080E0DF91CF911F9196
:1009B0000F9108958091080190910901089580E8B0
:1009C0000E94570C08951F93CF93DF938031B0F4AA
:1009D0006830A0F4142FC62FD82F81E00E947F0C1E
:1009E0006C2F677080E1689F900111248D2F8F70AC
:1009F000822B0E947F0C812F0E947F0CDF91CF9170
:100A00001F9108950F931F93CF93DF93803190F43C
:100A10008B01C82F83E00E947F0C8C2F8F700E9467
:100A20007F0CE801085F1F4F89910E947F0CC0175F
:100A3000D107D1F7DF91CF911F910F91089584E0F5
:100A40000E947F0C82E00E947F0C08958FE00E943C
:100A50007F0C089582958F7008958F70089583FBA1
:100A6000882780F991E08927089520E1829FC001BD
:100A700011246770862B08950E94DF040E942402CF
:100A800040E060E07BE480E090E00E94500A0E9439
:100A9000C60C0E94380B78940895FF920F931F9311
:100AA000CF93DF9380E00E94A70C0E949E0C0E94CF
:100AB000B40C63E083E00E94850C83E691E09F9391
:100AC0008F930E948E0E65E083E00E94850C0E9449
:100AD000260880E20E94A70C8BE391E09F938F93FE
:100AE0000E948E0E85E20E94A70C0E9426050F90A0
:100AF0000F900F900F90CFE00F2EFFE0FF2EF02D04
:100B00000FEF10EFD5E16C2F85E591E00E941909F8
:100B10000DC02FE78CE293E0215080409040E1F738
:100B200000C000000E9435028F3FA9F50E942809ED
:100B30008111EFCF0E94F90DDC01CB018370992761
:100B4000AA27B078BB2354F40197A109B1098C6F8F
:100B50009F6FAF6FBF6F0196A11DB11D81309105D1
:100B6000A105B10591F02CF4892B8A2B8B2B59F020
:100B7000CACF82309105A105B10549F00397A105BF
:100B8000B10539F0C0CFCD2FBECFCF2DBCCFC02FF8
:100B9000BACFC12FB8CFDF91CF911F910F91FF90A6
:100BA00008950E949E0C0E941C040E94EA070E9465
:100BB00032020E949E0A08952F923F924F925F92B6
:100BC0006F927F928F929F92AF92BF92CF92DF925D
:100BD000EF92FF920F931F93CF93DF9300D000D03B
:100BE00000D0CDB7DEB70E94DE0C2B013C010E9485
:100BF000DE0C6B017C010E94DE0C69837A838B839F
:100C00009C83212C312C1D820E9435028E838F3FC4
:100C100031F50E94970A882329F1ECEBF2E08081FC
:100C200091810E94500E082FFD81F11107C08B3178
:100C3000E1F421E02D831FEF0FEF1EC03D81313025
:100C400039F48B35A1F442E04D831FEF0FEF14C050
:100C50005D81523079F4182F1D820FEF0DC01FEF08
:100C60000FEF0AC01FEF0FEF07C01FEF05C01D8277
:100C70001FEF02C01D821FEF0E94DE0C60FD16C038
:100C80000E946F0B1BB8EDEC8E9F912D1124969551
:100C900096959695990F292F220F220F920F891B57
:100CA000E82FF0E0E65FFE4F808188B90E94DE0CFD
:100CB00025E030E040E050E00E94110D672B682BEA
:100CC000692BA1F40E946F0B8A3080F00E946F0B99
:100CD000F1E0FBB92DEC829FE12D1124E695E6951C
:100CE000E695F0E0E65FFE4F808188B93E813323D0
:100CF00011F0133421F481E00E94890B77C04E81FA
:100D0000423011F0113421F480E00E94890B6EC052
:100D10005E81533011F0143421F483E00E94890B7A
:100D200065C08E81813011F0123421F482E00E947E
:100D3000890B5CC00F7D003509F058C00E94DE0CA5
:100D40004B015C0184189508A608B7080E94DE0CC8
:100D500060FD16C00E946F0B1BB8EDEC8E9F912DAD
:100D60001124969596959695990F292F220F220F6B
:100D7000920F891BE82FF0E0E65FFE4F808188B973
:100D80000E94DE0C25E030E040E050E00E94110DB2
:100D9000672B682B692BA1F40E946F0B8A3080F0BF
:100DA0000E946F0BF1E0FBB92DEC829FE12D112425
:100DB000E695E695E695F0E0E65FFE4F808188B91E
:100DC0000E94970A882311F2ECEBF2E08081918176
:100DD0000E94500E8F7D803509F0B8CF0E94DE0C46
:100DE0002B013C01481859086A087B080E94DE0C58
:100DF0004B015C010E94DA04092E000CAA0BBB0B0C
:100E0000840D951DA61DB71D88169906AA06BB065A
:100E100048F00E948804882309F464C00E94DE0C14
:100E20002B013C010E94DE0C970186010856154CEF
:100E30002F4F3F4F6017710782079307D0F00E9432
:100E40006604882309F44EC00E94DE0C6B017C010D
:100E50000E94DE0C9701860108571C4E2F4F3F4F12
:100E60006017710782079307A0F422242394312C82
:100E700014C00E94DE0C9701860108571C4E2F4FAC
:100E80003F4F601771078207930738F02114310430
:100E900021F00E947504212C312C0E94DE0C4B01A4
:100EA0005C010E94DA04880F991F092E000CAA0B1E
:100EB000BB0B29813A814B815C81820F931FA41F58
:100EC000B51F88169906AA06BB0608F49DCE0E9497
:100ED0004504882339F00E94DE0C69837A838B8372
:100EE0009C8392CE26960FB6F894DEBF0FBECDBF80
:100EF000DF91CF911F910F91FF90EF90DF90CF90F6
:100F0000BF90AF909F908F907F906F905F904F9029
:100F10003F902F90089565E08AE00E94850C80E361
:100F200091E09F938F930E948E0E0E94F3080F9082
:100F30000F90882399F167E08AE00E94850C8EE289
:100F400091E09F938F930E948E0E8CE091E09F938F
:100F50008F930E948E0E8AEE90E09F938F930E9453
:100F60008E0E88EC90E09F938F930E948E0E86EAFF
:100F700090E09F938F930E948E0E8AE990E09F935A
:100F80008F930E948E0E0E94BD0C8DB79EB70C965B
:100F90000FB6F8949EBF0FBE8DBFFFCF64E18AE00D
:100FA0000E94850C8CE790E09F938F930E948E0E99
:100FB0000F900F900E9435028F3FE1F308950E9439
:100FC0003C050E944D050E94D1050E94DC050E944F
:100FD0008B07F9CF109268011092690110926A0193
:100FE00010926B01089540916801509169016091E0
:100FF0006A0170916B01480F591F611D711D40936B
:1010000068015093690160936A0170936B010E94BB
:10101000B40C60E082E30E94850C80916B018F9399
:1010200080916A018F93809169018F93809168010B
:101030008F938EEF92E09F938F930E948E0E0F906E
:101040000F900F900F900F900F900895CF93DF9314
:10105000F99B0AC087ED92E09F938F930E948E0EBA
:101060000F900F90F999FECF4AE050E06AE570E0EA
:101070008EE391E00E9445114AE050E066E470E0A2
:1010800086E391E00E9445114AE050E062E370E09F
:101090008EE291E00E9445114AE050E06EE170E07E
:1010A00086E291E00E9445114AE050E06AE070E07B
:1010B0008EE191E00E94451185ED92E09F938F9320
:1010C0000E948E0E88EA92E09F938F930E948E0E6C
:1010D0008BE792E09F938F930E948E0E8EE492E0B6
:1010E0009F938F930E948E0E80910800909109002B
:1010F0000E94551180931C0190931D019F938F9323
:10110000CEE3D1E0DF93CF9381E392E09F938F937F
:101110000E948E0E80910600909107000E9455114A
:1011200080931A0190931B019F938F93DF93CF932A
:1011300084E192E09F938F930E948E0E8091040031
:10114000909105000E945511809318019093190108
:101150009F938F93DF93CF9387EF91E09F938F932C
:101160000E948E0E80910200909103000E94551102
:1011700080931601909317019F938F93DF93CF93E2
:101180008AED91E09F938F930E948E0E8DB79EB74C
:1011900080960FB6F8949EBF0FBE8DBF8091000061
:1011A000909101000E9455118093140190931501B4
:1011B0009F938F93DF93CF938DEB91E09F938F93CA
:1011C0000E948E0E80E991E09F938F930E948E0E75
:1011D0008DB79EB708960FB6F8949EBF0FBE8DBF11
:1011E000DF91CF9108950F931F93F99B0AC089E671
:1011F00091E09F938F930E948E0E0F900F90F9991C
:10120000FECF409114015091150160E070E081E043
:10121000009168011091690120916A0130916B0180
:10122000401751076207730708F080E01F910F9184
:101230000895609346019093700180936F0110921E
:1012400072011092710110926E0110926D01089559
:101250000F931F93CF93DF93CDB7DEB728970FB6C9
:10126000F894DEBF0FBECDBFE0917101F091720125
:10127000309781F0149110FF06C010927201109205
:10128000710100E06BC03196F0937201E09371013F
:1012900000E064C0E0916D01F0916E01309709F4B7
:1012A00049C0CF01019690936E0180936D01E0815A
:1012B000E1110AC010926E0110926D0180E18093DD
:1012C0006C0100E010E04AC08FE98E0F8A3170F4A3
:1012D000F0E0EE0FFF1FE55AFD4F8591949190933A
:1012E00072018093710100E010E038C08FEB8E0F27
:1012F0008A3170F4F0E0EE0FFF1FE556FD4F859147
:101300009491909372018093710100E010E026C0E7
:1013100080ED8E0F8A3000F5F0E0EE0FFF1FE755ED
:10132000FD4F85919491909372018093710100E03B
:1013300010E014C080916F019091700101E000975E
:1013400009F000E090936E0180936D01109270019E
:1013500010926F0110E002C000E010E00E941F0533
:1013600020914601FE013896CE010196112314F416
:10137000208301C01082110F3197E817F907B1F7E8
:101380001982BE016F5F7F4F8FE00E94020580913E
:101390006C01882389F0815080936C01002311F047
:1013A000882311F090E003C091E001C091E081E05A
:1013B000992329F080E003C00023A1F3F7CF2896FA
:1013C0000FB6F894DEBF0FBECDBFDF91CF911F9156
:1013D0000F910895CF93C82F8A3019F48DE00E94A1
:1013E000EA099FB7907802C0992329F18091A90159
:1013F0008F3FD1F3F894E091A80181E08E0F8093A4
:10140000A801F0E0E655FE4FC0838091A9018F5FEF
:101410008093A9018091A8018F3F11F41092A80137
:10142000E1ECF0E0808180628083992339F0789448
:1014300080E090E005C081E090E002C080E090E0B4
:10144000CF9108958091BB028823E1F32FB72078D4
:10145000F8948091A9023091BB0290E0831B91091E
:101460005AF4E091A9028091BB02F0E0E81BF10977
:10147000E654FD4F80810AC0E091A9028091BB0231
:10148000F0E0E81BF109E655FD4F80819091BB0229
:1014900091509093BB02222309F0789490E0089534
:1014A0001092A8011092A9011092A9021092BB02F9
:1014B0001092BA0240937301DC01CB01880F991F8F
:1014C000AA1FBB1F880F991FAA1FBB1F9C01AD013C
:1014D000220F331F441F551F60E072E18AE790E03E
:1014E0000E94330DBA01A9014F5F5F4F6F4F7F4FCD
:1014F000DB01CA011AF40196A11DB11DB595A7958E
:101500009795879501979093C5008093C400E1EC6F
:10151000F0E088E18083808180688083ECEBF2E0FA
:1015200087E491E0938382839183808308959091EF
:10153000BB0281E0911101C080E008951092A902E0
:101540001092BB0208951F920F920FB60F921124B2
:101550002F938F939F93EF93FF938091A9018823FB
:1015600029F18091A8012091A90190E0821B9109A5
:101570005AF4E091A8018091A901F0E0E81BF1097B
:10158000E755FD4F90810AC0E091A8018091A90123
:10159000F0E0E81BF109E655FE4F90818091A9012A
:1015A00081508093A9019093C60005C0E1ECF0E062
:1015B00080818F7D8083FF91EF919F918F912F91FB
:1015C0000F900FBE0F901F9018951F920F920FB69D
:1015D0000F9211242F933F934F935F936F937F93B9
:1015E0008F939F93AF93BF93CF93EF93FF93C0914C
:1015F000C60080917301882349F08091A9018F3F33
:1016000029F060E070E08C2F0E94EA098091BB0213
:10161000803120F081E08093BA0218C0CD3009F407
:10162000CAE0E091A90281E08E0F8093A902F0E068
:10163000E655FD4FC0838091BB028F5F8093BB0254
:101640008091A902803111F41092A902FF91EF91CB
:10165000CF91BF91AF919F918F917F916F915F914A
:101660004F913F912F910F900FBE0F901F901895A3
:101670008FEF87B9529A08950F931F93CF9382E00B
:101680008093780110927601C1E0C093770161E008
:1016900081E00E94350509E711E0F801808361E0EF
:1016A00082E00E943505F8018183C0937501C093E3
:1016B0007401CF911F910F910895E09177010E2E43
:1016C000000CFF0BE758FE4F80810895E0917601F2
:1016D0000E2E000CFF0BE758FE4F8081089580917D
:1016E0007801089590917601E92F092E000CFF0BE7
:1016F000E758FE4F80819F5F913219F090937601F9
:1017000002C01092760190917801915090937801E7
:10171000089590917501933019F4813071F4089512
:10172000913019F4833049F40895911103C0823047
:1017300021F40895923009F4811180937401089581
:10174000909176013091770140E00DC0E92F092E8C
:10175000000CFF0BE758FE4F2081281789F09F5F90
:1017600091320CF0942F9313F1CFE32F330FFF0B33
:10177000E758FE4F91E02081281719F090E001C052
:1017800091E0892F0895CF93DF9380917801813282
:1017900008F083C0E09177010E2E000CFF0BE75894
:1017A000FE4F80810E942A05D82FC82FE091770133
:1017B0000E2E000CFF0BE758FE4F80810E942D0576
:1017C000682F90917401913059F028F0923069F0AF
:1017D000933081F01BC0873091F061E0680F16C034
:1017E000DF3079F0C1E0CD0F11C0882361F06FEFD9
:1017F000680F0CC0DD2349F0CFEFCD0F07C060E0CC
:1018000005C0C0E003C067E001C0CFE08C2F0E949C
:101810003505C82F80917401809375018C2F0E942B
:10182000A00B813051F4E09177010E2E000CFF0BDC
:10183000E758FE4F8081C81332C081E090E00E94DB
:10184000F30780E00E94A70C809177018F5F8132BF
:1018500019F08093770102C010927701E09177012F
:101860000E2E000CFF0BE758FE4FC08380917801CD
:101870008F5F809378018C2F0E94D102882331F0F2
:1018800080917801813268F083E00EC08C2F0E9435
:10189000D902811108C081E007C08DEF05C08EEF2D
:1018A00003C082E001C084E0DF91CF91089594B13C
:1018B000906B94B92C9A90E59CBD883021F08032D1
:1018C00011F0823019F491E09DBD01C01DBC803241
:1018D00069F028F4883071F0803161F00EC08034F6
:1018E00029F0803851F48CB581608CBD8CB5826054
:1018F0008CBD03C08CB581608CBD2C9808958EBDC5
:101900000DB407FEFDCF8EB50895282F082E000CCC
:10191000330B3F938F93862F062E000C990B9F93CA
:101920006F9380E094E09F938F930E948E0E0F90B0
:101930000F900F900F900F900F9008958BEF93E002
:101940009F938F930E948E0E0F900F9008951F9279
:101950008F9385EF93E09F938F930E948E0E0F904D
:101960000F900F900F9008958EEE93E09F938F93BA
:101970000E948E0E0F900F90089587EE93E09F9334
:101980008F930E948E0E0F900F90089510929A01DF
:1019900010929B0110929C0110929D0116BC8CE745
:1019A00087BD82E084BD83E085BDEEE6F0E0808106
:1019B0008260808385B3827085BB08952FB7F894C9
:1019C00060919A0170919B0180919C0190919D0181
:1019D00022230CF4789408951F920F920FB60F9261
:1019E00011248F939F93AF93BF9380919A0190910D
:1019F0009B01A0919C01B0919D010196A11DB11D7B
:101A000080939A0190939B01A0939C01B0939D01B8
:101A1000BF91AF919F918F910F900FBE0F901F902C
:101A20001895A1E21A2EAA1BBB1BFD010DC0AA1F0F
:101A3000BB1FEE1FFF1FA217B307E407F50720F037
:101A4000A21BB30BE40BF50B661F771F881F991FB2
:101A50001A9469F760957095809590959B01AC01FB
:101A6000BD01CF010895052E97FB1EF400940E943E
:101A70004A0D57FD07D00E94110D07FC03D04EF40C
:101A80000C944A0D50954095309521953F4F4F4FFE
:101A90005F4F089590958095709561957F4F8F4F1A
:101AA0009F4F08958F929F92AF92BF92CF92DF92F5
:101AB000EF92FF92CF93DF93EC01688179818A8165
:101AC0009B81611571058105910521F464E279ED31
:101AD0008BE597E02DE133EF41E050E00E94330DBC
:101AE00049015A019B01AC01A7EAB1E40E945B11D4
:101AF0006B017C01ACEEB4EFA50194010E94691169
:101B0000DC01CB018C0D9D1DAE1DBF1DB7FF03C0B9
:101B10000197A109B04888839983AA83BB839F77E3
:101B2000DF91CF91FF90EF90DF90CF90BF90AF907B
:101B30009F908F9008950E94520D089580E091E04B
:101B40000E94520D0895A0E0B0E0809300019093B0
:101B50000101A0930201B093030108958F929F9217
:101B6000AF92BF92CF92DF92EF92FF92CF93DF932B
:101B7000EC01688179818A819B81611571058105FC
:101B8000910521F464E279ED8BE597E02DE133EFE7
:101B900041E050E00E94330D49015A019B01AC0124
:101BA000A7EAB1E40E945B116B017C01ACEEB4EFDB
:101BB000A50194010E946911DC01CB018C0D9D1DD2
:101BC000AE1DBF1DB7FF03C00197A109B0488883B0
:101BD0009983AA83BB83BC01CD019F77DF91CF910D
:101BE000FF90EF90DF90CF90BF90AF909F908F903D
:101BF00008958F929F92AF92BF92CF92DF92EF9211
:101C0000FF9260910401709105018091060190910D
:101C10000701611571058105910521F464E279EDF3
:101C20008BE597E02DE133EF41E050E00E94330D6A
:101C300049015A019B01AC01A7EAB1E40E945B1182
:101C40006B017C01ACEEB4EFA50194010E94691117
:101C5000DC01CB018C0D9D1DAE1DBF1DB7FF03C068
:101C60000197A109B0488093040190930501A093C6
:101C70000601B0930701BC01CD019F77FF90EF9063
:101C8000DF90CF90BF90AF909F908F90089560931A
:101C90000401709305018093060190930701089554
:101CA000CF93DF93EC012B8120FF33C026FF0AC0C6
:101CB0002F7B2B838E819F8101969F838E838A81C8
:101CC00090E029C022FF0FC0E881F9818081082EB1
:101CD000000C990B009719F420622B831AC03196DF
:101CE000F983E8830EC0EA85FB85099597FF09C053
:101CF0002B81019611F080E201C080E1822B8B8361
:101D000008C02E813F812F5F3F4F3F832E8399274D
:101D100002C08FEF9FEFDF91CF910895A0E0B0E078
:101D2000E4E9FEE00C947C11AE01495F5F4FDA01FB
:101D30006D917D91AD010CEB12E0F80182819381F0
:101D4000DC0113962C911397286013962C930E9414
:101D5000B40ED8011296ED91FC9113972381277F41
:101D60002383E4E00C949811ABE0B0E0EAEBFEE0F2
:101D70000C946E116C017B018A01FC0117821682A2
:101D8000838181FFCCC1CE0101963C01F601938194
:101D9000F70193FD859193FF81917F01882309F4D9
:101DA000BAC1853239F493FD859193FF81917F010A
:101DB000853229F4B60190E00E94AB10E7CF912C58
:101DC000212C312CFFE1F315D8F08B3279F038F467
:101DD000803279F08332A1F4232D20611DC08D3231
:101DE00061F0803369F4232D216016C0832D826059
:101DF000382EE32DE4603E2E2AC0F32DF8601DC07E
:101E000037FC2DC020ED280F2A3040F08E32B9F477
:101E100036FC81C1232D2064322E19C036FE06C047
:101E20008AE0989E200D1124922E11C0EAE02E9E89
:101E3000200D1124222EF32DF0623F2E08C08C3687
:101E400021F4832D8068382E02C0883641F4F701D2
:101E500093FD859193FF81917F018111B3CF982FDD
:101E60009F7D9554933028F40C5F1F4F9FE3998317
:101E70000DC0833631F0833771F0833509F059C0D6
:101E800021C0F801808189830E5F1F4F88248394CD
:101E9000912C530113C02801F2E04F0E511CF801A0
:101EA000A080B18036FE03C0692D70E002C06FEFE4
:101EB0007FEFC5010E94A0104C018201F32DFF7736
:101EC0003F2E16C0280122E0420E511CF801A080CE
:101ED000B18036FE03C0692D70E002C06FEF7FEF66
:101EE000C5010E9495104C01F32DF0683F2E820130
:101EF00033FC1BC0822D90E088169906B0F4B60121
:101F000080E290E00E94AB102A94F4CFF50137FCF8
:101F1000859137FE81915F01B60190E00E94AB1080
:101F200021102A9421E0821A91088114910471F7FA
:101F3000E8C0843611F0893641F5F80137FE07C054
:101F400060817181828193810C5F1F4F08C0608125
:101F50007181072E000C880B990B0E5F1F4FF32D1C
:101F6000FF763F2E97FF09C09095809570956195FB
:101F70007F4F8F4F9F4FF0683F2E2AE030E0A30144
:101F80000E94E710882E861845C0853731F4232D2E
:101F90002F7EB22E2AE030E025C0932D997FB92EF6
:101FA0008F36C1F018F4883579F0B5C0803719F054
:101FB000883721F0B0C0E92FE061BE2EB4FE0DC01D
:101FC000FB2DF460BF2E09C034FE0AC0292F266005
:101FD000B22E06C028E030E005C020E130E002C0AB
:101FE00020E132E0F801B7FE07C060817181828193
:101FF00093810C5F1F4F06C06081718180E090E08B
:102000000E5F1F4FA3010E94E710882E8618FB2D3C
:10201000FF773F2E36FE0DC0232D2E7FA22E891472
:1020200058F434FE0BC032FC09C0832D8E7EA82EDE
:1020300005C0B82CA32C03C0B82C01C0B92CA4FE39
:102040000FC0FE01E80DF11D8081803321F49A2D2F
:10205000997EA92E09C0A2FE06C0B394B39404C011
:102060008A2D867809F0B394A3FC11C0A0FE06C0A7
:10207000B21488F4280C922C9B180EC0B21460F491
:10208000B60180E290E00E94AB10B394F7CFB21497
:1020900018F42B1802C0982C212CA4FE10C0B601F5
:1020A00080E390E00E94AB10A2FE17C0A1FC03C029
:1020B00088E790E002C088E590E0B6010CC08A2D68
:1020C000867859F0A1FE02C08BE201C080E2A7FC35
:1020D0008DE2B60190E00E94AB10891438F4B6018D
:1020E00080E390E00E94AB109A94F7CF8A94F301BA
:1020F000E80DF11D8081B60190E00E94AB108110C7
:10210000F5CF222009F442CEB60180E290E00E9491
:10211000AB102A94F6CFF6018681978102C08FEF2B
:102120009FEF2B96E2E10C948A11FC01059061501F
:1021300070400110D8F7809590958E0F9F1F0895DD
:10214000FC016150704001900110D8F78095909586
:102150008E0F9F1F08950F931F93CF93DF93FB0163
:10216000238121FD03C08FEF9FEF2CC022FF16C0FB
:1021700046815781248135814217530744F4A08159
:10218000B1819D012F5F3F4F318320838C93268146
:1021900037812F5F3F4F3783268314C08B01EC01BB
:1021A000FB010084F185E02D0995892BE1F6D8012A
:1021B00016968D919C911797019617969C938E93E6
:1021C0001697CE01DF91CF911F910F910895FA01DB
:1021D000AA27283051F1203181F1E8946F936E7F66
:1021E0006E5F7F4F8F4F9F4FAF4FB1E03ED0B4E057
:1021F0003CD0670F781F891F9A1FA11D680F791F98
:102200008A1F911DA11D6A0F711D811D911DA11DA8
:1022100020D009F468943F912AE0269F11243019B8
:10222000305D3193DEF6CF010895462F4770405D53
:102230004193B3E00FD0C9F7F6CF462F4F70405D02
:102240004A3318F0495D31FD4052419302D0A9F75D
:10225000EACFB4E0A6959795879577956795BA9557
:10226000C9F700976105710508959B01AC010A2E1D
:1022700006945795479537952795BA95C9F7620FF4
:10228000731F841F951FA01D0895DC01CB01FC0165
:10229000F999FECF06C0F2BDE1BDF89A319600B4BF
:1022A0000D9241505040B8F70895A8E1B0E042E0E7
:1022B00050E00C9447110E94A511A59F900DB49F6A
:1022C000900DA49F800D911D11240895B7FF0C94CB
:1022D0005B110E945B11821B930B08952F923F921A
:1022E0004F925F926F927F928F929F92AF92BF9226
:1022F000CF92DF92EF92FF920F931F93CF93DF93D2
:10230000CDB7DEB7CA1BDB0B0FB6F894DEBF0FBE2E
:10231000CDBF09942A88398848885F846E847D847B
:102320008C849B84AA84B984C884DF80EE80FD807D
:102330000C811B81AA81B981CE0FD11D0FB6F894F3
:10234000DEBF0FBECDBFED010895A29FB001B39FC8
:10235000C001A39F700D811D1124911DB29F700DAE
:0C236000811D1124911D0895F894FFCFF9
:10236C00010000000100000058023F065B4F666D43
:10237C007D077F6F06000700080009000A006C65E6
:10238C006164657235006C656164657234006C65FE
:10239C006164657233006C656164657232006C65F2
:1023AC006164657231000F0000000300000000EA58
:0E23BC0009220A000034333035313731390040
:00000001FF
